:100000000C944B020C949A1B0C9492020C94920246
:100010000C9492020C9492020C9492020C94920210
:100020000C9492020C9492020C9406230C94DA2302
:100030000C94291E0C9492020C9492020C9492023D
:100040000C9492020C9492020C9492020C949202E0
:100050000C9492020C949C1E0C9492020C949202AA
:100060000C9492020C9492020C9492020C949202C0
:100070000C9492020C9492020C9492020C949202B0
:100080000C9492020C9492020C9492020C949202A0
:100090000C9492020C9492020C9492020C94920290
:1000A0000C9492020C9492020C94920229001E006D
:1000B0001F002000210022002D002B0014001A0038
:1000C0000800150017002F00E000040016000700CC
:1000D00009000A003100E1001D001B0006001900A4
:1000E0000500F4000151E300E2004C0503512C002F
:1000F00039002A00270026002500240023002E00B6
:100100003500130012000C0018001C0030003400F1
:1001100033000F000E000D000B003800E500520008
:100120003700360010001100F5004F00510050005C
:10013000E60002512800045301003A003B003C0055
:100140003D003E00440001000100010001000100EB
:100150000100010001000100010001000100010097
:100160000100010001000100010001000100010087
:1001700001000100010001000100010001004C002C
:1001800043004200410040003F00450001000100E3
:1001900001004600010001000100010001004B00C8
:1001A0004A00010001000100010001004E004D0065
:1001B0000100010001000100010001000100010037
:1001C000010001000100000000000000000000002C
:1001D000000001000000ED00000000000000000031
:1001E0000100EF00EE00F000000000000000010040
:1001F00000000000000000000000010001000100FC
:1002000001000100010001000100000000000000E9
:100210000000000000000000000000000000F200EC
:10022000F10000000000000000004F0052005100EB
:10023000500000000000000000000000000000006E
:1002400001000000000000000100010001000100A9
:10025000010000000000000000000000000001009C
:10026000000000000000000000000000010000008D
:10027000000000000000000000000100000000007D
:100280000000000000000100010001000100010069
:100290000100010001002A005700610060005F00BA
:1002A00053000000000056005E005D005C0000008E
:1002B0000000000055005B005A00590000000000DB
:1002C00000005400580063006200000001000000BC
:1002D000000000000100010001000100000000001A
:1002E000000000000000000000002B0014021A02B1
:1002F0000802150217020000E000040216020702BD
:1003000009020A02000000001D021B020602190277
:10031000050201000000E300E2000100010001000D
:1003200001002A00000000000000000000000000A2
:100330000000130212020C0218021C02000000004E
:1003400000000F020E020D020B020000000052001E
:10035000000000001002110201004F005100500087
:100360000000010001000100120345007200670057
:100370006F00440061007300680000000C034F0030
:100380006D006B00620064000000040309040902B0
:100390003B00020100A0FA09040000010301010072
:1003A0000921110100012240000705810308000A0C
:1003B00009040100010300000009211101000122CC
:1003C0007B000705820320000A12010002000000E2
:1003D00008EDFE606000010102000105010902A1B3
:1003E0000185020901A10005091901290815002547
:1003F0000195087501810205010930093115812532
:100400007F95027508810609381581257F9501754C
:10041000088106050C0A38021581257F95017508AB
:100420008106C0C005010980A101850319012AB711
:1004300000150126B700950175108100C0050C0953
:1004400001A101850419012AA002150126A0029527
:100450000175108100C005010906A101050719E019
:1004600029E7150025019508750181029501750898
:1004700081010507190029FF150026FF0095067563
:100480000881000508190129059505750191029556
:100490000175039101C011241FBECFEFDAE0DEBF6A
:1004A000CDBF04B603FE27C08091DA029091DB0233
:1004B000A091DC02B091DD028730904BA740B04B99
:1004C000D1F41092DA021092DB021092DC02109248
:1004D000DD0214BE84B7877F84BF0FB6F894A89559
:1004E00080916000886180936000109260000FBE70
:1004F000E0E0F8E3099511E0A0E0B1E0ECE4FCE411
:1005000002C005900D92A63CB107D9F722E0A6ECF7
:10051000B1E001C01D92AA3DB207E1F70E94821628
:100520000C94FC250C9400000C948512089581E035
:10053000089581E008950C94990208950C949D0209
:100540001F93CF93DF9300D000D00F92CDB7DEB7CB
:1005500049835A836B833091C80189819A81311113
:100560001DC06623B9F02223A9F00E940709182FA5
:10057000682F89819A810E94B30869817A81812FCD
:100580000F900F900F900F900F90DF91CF911F91D0
:100590000C9410100E94DF08182FEFCF0E9407095B
:1005A00069817A81EDCFFC01262F408151816281E2
:1005B000738184810C94A00281E00895CF93DF932E
:1005C000EC0160E00E94D302BE01DF91CF910C9458
:1005D0009E020E9461120E9470030C9494020C947B
:1005E0008712089508950C94F2020E94F30280E0AD
:1005F0000C9471030E945C070E9496022FEF84E323
:100600009CE0215080409040E1F700C000000C9435
:10061000C01E0F931F93CF93DF938C0161E00E9464
:10062000D302EC01B8010E949B028823D9F1B801E2
:10063000CE010E94D5198823A9F1B801CE010E94EC
:10064000A21A882379F1B801CE010E946618882386
:1006500049F1B801CE010E949019882319F1F801DF
:100660008281882361F0CB35FDE5DF0721F170F44D
:10067000C115ECE5DE07A1F0CF3DDC45C9F0C801AE
:10068000DF91CF911F910F910C949702CC358DE59E
:10069000D807A1F0CD35DD4591F70E94770EEFCF59
:1006A0000E94FA0280E0DF91CF911F910F9108958F
:1006B0000E942B0FF7CF0E94800EE1CF0E94830E85
:1006C000DECF0C94F1020E941E1D0E9471030C9457
:1006D000610308950C94690381E008950C946C0300
:1006E0000895CF93C82F0E946A038C2FCF910C944A
:1006F0006E03CF93DF93CDB7DEB72B970FB6F89489
:10070000DEBF0FBECDBF4F83588769877A878B873F
:1007100061110E94C50D1E821D8285E0FE01379683
:10072000DE01119601900D928A95E1F78C819D81F1
:10073000892B89F449815A816B817C818D819E81CD
:100740000E94E60C2B960FB6F894DEBF0FBECDBF0D
:10075000DF91CF91089589819A8189238F3F51F349
:10076000CE0101960E94DC028111E4CFEBCFFC01A7
:10077000808191810C944909CF93C82F882309F473
:100780008BC08238C1F40E941E1D81FD85C089E3A3
:100790000E94800D0E94F50D2FEF81EE94E0215014
:1007A00080409040E1F700C0000089E30E94870D7F
:1007B000CF910C94F50D8338A1F40E941E1D80FD8D
:1007C0006BC083E50E94800D0E94F50D2FEF81EE36
:1007D00094E0215080409040E1F700C0000083E5A4
:1007E000E5CF8438A1F40E941E1D82FD55C087E428
:1007F0000E94800D0E94F50D2FEF81EE94E02150B4
:1008000080409040E1F700C0000087E4CFCF8CEF3C
:100810008C0F813A90F46C2F80910201909103012A
:100820000E94881D882329F08C2F0E94870D0E942A
:10083000F50D8C2F0E94800DBBCF80E28C0F88308D
:1008400048F4C77081E001C0880FCA95EAF70E949A
:10085000A80DAECFEBE5EC0FE33040F4F0E0E1584B
:10086000FE4F808190E0CF910C944A1DE8E5EC0F9B
:10087000E73150F4F0E0EE0FFF1FEF5AFE4F80819A
:100880009181CF910C94601DCD3E30F08C2F0E9451
:100890000617CF910C94B117CF910895882309F4CE
:1008A00052C0823871F40E941E1D81FF4CC089E342
:1008B0000E94800D0E94F50D89E30E94870D0C9423
:1008C000F50D833859F40E941E1D80FF3CC083E55E
:1008D0000E94800D0E94F50D83E5EFCF843859F416
:1008E0000E941E1D82FF2FC087E40E94800D0E947F
:1008F000F50D87E4E2CF9CEF980F913AF0F290E289
:10090000980F983050F4877091E001C0990F8A9544
:10091000EAF7892F0E94AE0DD2CF9BE5980F933056
:1009200020F490E080E00C944A1D98E5980F9731F0
:1009300020F490E080E00C94601D8D3E20F00E9439
:100940005B170C94B11708951F93CF93DF93182F63
:10095000EB010E94BC03209731F4812FDF91CF91EE
:100960001F910C944E048FE99FE00197F1F700C0AE
:1009700000002197F0CF70E060E0893311F460E56A
:1009800070E00C94A404882321F00E94A80D0C941C
:10099000F50D0895882321F00E94AE0D0C94F50DFD
:1009A0000895BF92CF92DF92EF92FF920F931F9321
:1009B000CF93DF936C01D62FC72FFC011281F580F6
:1009C000F2949FE0F9220E949E0DE82E8823B9F050
:1009D000E12E1123A1F08C2F807F803421F080E262
:1009E0008D0F8830B0F08091B10282FD12C082E09C
:1009F0000E94460E0E949E0D91E0E82EE926BC2E34
:100A0000B2948FE0B822EB2DF0E0E250FA4D0C9456
:100A10009E25E12CF4CF0C2F0F70C07F11F00295B2
:100A2000007F112399F0002359F080E28D0F883068
:100A300010F0D11107C0802F0E94A80D0E94F50D63
:100A40008D2F41C0802F0E94B80DF8CF8D2F0E94AE
:100A50004E04002309F43FC080E28D0F883010F06F
:100A6000D11104C0802F0E94AE0D03C0802F0E94C0
:100A7000BE0D0E94F50D2FC00C2F0F70C07FC0322D
:100A800011F00295007FDD2381F0D13009F469C0B7
:100A9000112309F473C0FF2009F469C0F6018581B0
:100AA00080FFCECF8F70858362C08091B10282FFBC
:100AB00038C0112359F0002329F0802F0E94A80D7F
:100AC0000E94F50D80E00E94BC0305C080E00E94FA
:100AD0004E040111C7CFEB2DE850FF0B349720F4E3
:100AE0000E941E1D0E947103EE2009F482C10E9423
:100AF0009A0D80FD7EC1F60112820E94940D0E9423
:100B00001708C6010E941A070E94940DDF91CF9129
:100B10001F910F91FF90EF90DF90CF90BF900C94BA
:100B20003808112389F0F11006C00E94D80D802BDF
:100B30000E94C304D0CFF1E0FF12F7CF0E94D80D7E
:100B4000802B0E94DE0DC7CFF11006C00E94EB0D76
:100B5000802F0E94CA04BFCF21E0F21609F4BBCF58
:100B6000F5CF112331F035E03F1508F4B4CF802FD5
:100B7000DFCF84E08F1508F4AECFEACFFF2041F33A
:100B8000D93349F4FFEF27EE33E0F15020403040F5
:100B9000E1F700C000008D2F0E944E049CCF8C2FE7
:100BA00086958695837069F0813009F094CF8D2FFA
:100BB0009C2F9370111102C090E080E00E94601D94
:100BC0008ACF8D2F9C2F9370111102C090E080E08E
:100BD0000E944A1D80CF8D2F112329F00E940617F5
:100BE0000E94B11778CF0E945B17FACF8C2F8370C9
:100BF00009F041C011116FCF4D2F429546954770B6
:100C0000440F440F0D2F0F7010E030E020E0042E51
:100C100004C0000F111F221F331F0A94D2F760E097
:100C200070E0CB01D4FF0FC06FE070E080E090E097
:100C300004C0660F771F881F991F4A95D2F76095E9
:100C4000709580959095C695C695C370602B712B55
:100C5000822B932BC23049F058F4C13019F00E9416
:100C6000C90739CF0E94B70736CF0E94DB0733CFC1
:100C70000E94B50730CF8695112311F08C2F81701B
:100C8000882309F428CF4D2F429546954770440F8D
:100C9000440F0D2F0F7010E030E020E0042E04C050
:100CA000000F111F221F331F0A94D2F760E070E07B
:100CB000CB01D4FF0FC06FE070E080E090E004C093
:100CC000660F771F881F991F4A95D2F76095709518
:100CD00080959095C695C695C370602B712B822B1D
:100CE000932BC23049F058F4C13019F00E948E089D
:100CF000F2CE0E947C08EFCE0E94A008ECCE0E94AB
:100D0000F107E9CECF70112329F08C2F0E9417082C
:100D10008D2F0ECF8D2F0E94CA048C2F0E94380871
:100D2000DACED23F51F160F4D03FB9F0D13F81F03B
:100D3000112309F449C0F11083CE8C2F8F7121C08B
:100D4000D33F11F1D43FA1F78091B10282FF26C0B9
:100D50008C2F8F71112311F314C0112349F084E0FB
:100D60008F1508F4B8CE8C2F8F710E945B08B3CE1C
:100D700095E09F1508F4AFCEF6CF8C2F8F7111112F
:100D8000CDCF0E941708A7CE112329F08C2F8F7189
:100D90000E940208A0CE0E94FD079DCE112349F0BB
:100DA000CF718C2F0E94170863E08C2F0E942B0EAE
:100DB00092CE81E00E94460EE1E0EF1508F08BCE66
:100DC00082E00E94460E87CEF110DACE8C2F8F7112
:100DD000A5CF4C2F4F706D2FC6010E940C100E94A2
:100DE000770979CE4C2F4F706D2FC6010E940F10DE
:100DF00072CEDF91CF911F910F91FF90EF90DF9016
:100E0000CF90BF9008950F931F93CF93DF93EC0182
:100E1000688179818A810E9453098C010E94B208FD
:100E20000E94B407B801CE01DF91CF911F910F91BD
:100E30000C94D104CF93DF93EC018B819C81892B9F
:100E400029F08881998189238F3F59F4DF91CF91CF
:100E50000895CE010E940307CE01DF91CF910C943B
:100E6000DE02CE010E9409038111F3CF0E949E0D84
:100E7000882361F38A81882349F38091B10282FD3E
:100E8000E5CF82E0DF91CF910C94460E90E080E0B8
:100E90000E944A1D90E080E00E94601D0E94C50DE6
:100EA0000E94D50D0E94F50D0E9446180C94B117B2
:100EB0000E948E0D0C9446070E94B50D0C945807A5
:100EC000E92FE295EF70E250EE3070F4F0E0E25F6F
:100ED000F94D0C949E25803F19F020F4883E20F4B3
:100EE00081E00895843FE1F380E00895883EC0F3F7
:100EF000813FD1F7F5CF93FB882780F90895FC0156
:100F0000808191810E9449090C946007CF93DF93FF
:100F100000D000D00F92CDB7DEB70F900F900F909A
:100F20000F900F90DF91CF910895CF93DF9300D072
:100F300000D000D0CDB7DEB726960FB6F894DEBF4E
:100F40000FBECDBFDF91CF91089508950C94A507F2
:100F50000E94A6076093FA017093FB018093FC0145
:100F60009093FD010C94460708950C94A8070F93E5
:100F70001F930091FA011091FB012091FC01309127
:100F8000FD01602B712B822B932B1F910F910C94E1
:100F9000A8070F931F930091FA011091FB01209174
:100FA000FC013091FD0160237123822393231F9163
:100FB0000F910C94A8070F931F930091FA011091C1
:100FC000FB012091FC013091FD01602771278227F0
:100FD00093271F910F910C94A8070C94A5070C94CC
:100FE000ED070E94EF076093F6017093F70180937D
:100FF000F8019093F9010C94460760E070E0CB0192
:101000000C94F1070F931F9341E050E060E070E013
:101010008A019B0104C0000F111F221F331F8A95F4
:10102000D2F7C901B8011F910F910C94F1070F93EA
:101030001F9341E050E060E070E004C0440F551F92
:10104000661F771F8A95D2F78091F6019091F7017C
:10105000A091F801B091F9018A019B01082B192B8D
:101060002A2B3B2BC901B8011F910F910C94F1075A
:101070000F931F9341E050E060E070E004C0440F24
:10108000551F661F771F8A95D2F7CB01BA0160956D
:101090007095809590950091F6011091F70120913F
:1010A000F8013091F90160237123822393231F916A
:1010B0000F910C94F1070F931F9341E050E060E013
:1010C00070E004C0440F551F661F771F8A95D2F742
:1010D0008091F6019091F701A091F801B091F9018A
:1010E0008A019B01082719272A273B27C901B80134
:1010F0001F910F910C94F1070F931F930091F6012C
:101100001091F7012091F8013091F901602B712BBA
:10111000822B932B1F910F910C94F1070F931F9328
:101120000091F6011091F7012091F8013091F90139
:1011300060237123822393231F910F910C94F10755
:101140000F931F930091F6011091F7012091F80180
:101150003091F90160277127822793271F910F9102
:101160000C94F107089527E0929F800D1124982F89
:10117000977041E001C0440F9A95EAF786958695ED
:10118000869595E0899FF0011124E753FE4F90E08A
:1011900080E070E05191DF0111979B01082E02C0A1
:1011A000369527950A94E2F7217021952527242367
:1011B00025272C9301968530910561F7089527E046
:1011C000929F800D1124982F97708695869586950D
:1011D00025E0829FF0011124E753FE4F50E040E0EC
:1011E00080E0219130E0092E02C0369527950A94BF
:1011F000E2F721703327042E01C0220F0A94EAF788
:10120000822B4F5F5F4F4530510559F70895BF92CC
:10121000CF92DF92EF92FF920F931F93CF93DF93C2
:101220008C01C090F601D090F701E090F801F090A9
:10123000F9018091FA019091FB01A091FC01B0911C
:10124000FD01C82AD92AEA2AFB2ACFE1D0E0BC2E28
:10125000D701C6010C2E04C0B695A7959795879522
:101260000A94D2F780FD0EC0219788F7B12C8B2D00
:10127000DF91CF911F910F91FF90EF90DF90CF9072
:10128000BF900895B8018C2F0E943F11019761F320
:10129000EECFCF93DF93EC010E940709BE01DF91EF
:1012A000CF910C943F111F93CF93DF93EB0190915B
:1012B000C801992331F0CB01DF91CF911F910C949C
:1012C0004909882379F0CB010E940709182F682F5C
:1012D000CE010E94B308BE01812FDF91CF911F91F3
:1012E0000C943F11CB010E94DF08182FF4CFEF922E
:1012F000FF920F931F93CF93DF938C01892B81F083
:10130000F12CEE24E394E8012196F80184918437CE
:1013100070F4843008F05FC08130B1F08230A1F108
:10132000DF91CF911F910F91FF90EF900895853736
:1013300009F44CC008F43DC09CE7980F903780F743
:101340008F770E944E0449C00E5F1F4FFE018491AB
:1013500090E2980F983060F48770FE2D01C0FF0F67
:101360008A95EAF78F2F0E94C80D0E94F50D02C0E2
:101370000E94BC038F2D815030F2EFE9FFE03197DE
:10138000F1F700C00000F7CF0E5F1F4FFE01849100
:1013900090E2980F983050F48770FE2D01C0FF0F37
:1013A0008A95EAF78F2F0E94CE0DDFCF0E944E0460
:1013B000E1CF0E5F1F4FFE01C491C150D8F28FE9FB
:1013C0009FE00197F1F700C00000F7CF0E5F1F4FBD
:1013D000FE01F490CFCF0E94BC038E01CBCF1F93B0
:1013E000CF93DF93C091FE0116E08091FF018C1333
:1013F00004C0DF91CF911F910895D0E01C9FF001B0
:101400001D9FF00D1124E050FE4F408151816281FB
:101410007381848195810E9495072196C770E5CFDD
:10142000409130025091310260913202709133024A
:1014300080913402909135020C9495072091FE0121
:101440009091FF0156E0291302C080E0089530E03A
:10145000529FF001539FF00D1124E050FE4F718117
:10146000761306C07081781303C07281741304C0B0
:101470002F5F3F4F2770E7CF81E0089580910001F3
:10148000909101010895DF92EF92FF920F931F93C5
:10149000CF93DF9380913502807F61F48091320297
:1014A000882341F0C091FE0186E0D82E8091FF0193
:1014B0008C1308C0DF91CF911F910F91FF90EF9097
:1014C000DF9008952091330230913402D0E021154D
:1014D000310541F08091300290913102482F49232B
:1014E0004F3F19F42196C770E1CFDC9E8001DD9E4D
:1014F000100D1124F801E050FE4F41814913F2CF45
:1015000090819813EFCF82818111ECCFE380F4803A
:10151000E21AF30A60E080E392E00E94D30260E303
:1015200072E00E943E0AE816F906E0F68091350264
:101530008F70806180933502F801EB5FFD4F8081F1
:101540008F708061808380E392E00E941A07DF91B0
:10155000CF911F910F91FF90EF90DF900C94EF09C6
:101560004F925F926F927F928F929F92AF92BF92B3
:10157000CF92DF92EF92FF920F931F93CF93DF935F
:10158000CDB7DEB761970FB6F894DEBF0FBECDBF03
:101590008C0185E0F801DE011D9601900D928A957F
:1015A000E1F7D8014C9011965C90119712967C90BF
:1015B00012971396ED90FC9060E080E392E00E9419
:1015C000D3024C0180E3A82E82E0B82E2091330292
:1015D000309134022115310541F080913002909113
:1015E000310289238F3F09F09EC17110FAC0C801F2
:1015F0000E941A0772C0EF2829F0852D84218F3FA1
:1016000009F005C180E0B82FB170EB2E80FF29C032
:10161000472D652D842D0E941E0AF82E811121C0B0
:101620004D865E868D859E850E944909292F2295CB
:101630002F70223050F0243078F49F7051F0F80170
:101640009581907F31F46F2C03C19F7011F0882336
:10165000D1F3805E8830B8F3C8010E941A07FE2CCF
:10166000F2CF772009F4F4C0809135028160809335
:101670003502612CEDC0892B49F0809130029091A8
:101680003102282F29232F3F09F0FAC0C8010E94F8
:101690007F07882309F4ABCF772009F4A8CF809186
:1016A0003502803270F0209130023091310238875B
:1016B0002F831986FB86EA868C87CE0107960E94C7
:1016C0001A0786E0F801A0E3B2E001900D928A9536
:1016D000E1F70E94430A0E94100A66246394B8C08E
:1016E000211112C07E2DF98AE88AA201672D89890D
:1016F0000E94860780E392E00E941A0786E0F501C7
:1017000011928A95E9F75FC180913302909134027A
:10171000892B49F08091300290913102282F2923A2
:101720002F3F09F0CAC0C8010E947F07882309F42F
:101730005ECF772009F45BCF80913502803208F2CA
:1017400020913002309131023A8329831B82FD823D
:10175000EC828E83CE010196B2CF60E080E392E00E
:101760000E94D30260E372E00E943E0AC816D906C6
:1017700050F5672C772009F43ACF8091330290918D
:101780003402892B49F08091300290913102282F48
:1017900029232F3F09F0AAC0C8010E947F078111A9
:1017A00090CF80913502816080933502C8010E94FC
:1017B0001A074EC086E0F801A0E3B2E001900D9256
:1017C0008A95E1F745C07E2DF98AE88AA201672D46
:1017D00089890E94860786E0D5011D928A95E9F7DE
:1017E00069C0C8010E947F07682E882309F4FFCED4
:1017F00086E0F801A0E3B2E001900D928A95E1F74E
:1018000080E392E00E94B7030E94430A53C081E044
:101810008725F9CE81E08725C1C0F80121812913F0
:10182000ACC0F80190819813A8C07110A6C0809137
:1018300035028F708061809335020E94100A80E328
:1018400092E00E941A0780913502D80115968C9378
:10185000862D61960FB6F894DEBF0FBECDBFDF9127
:10186000CF911F910F91FF90EF90DF90CF90BF909D
:10187000AF909F908F907F906F905F904F90089562
:10188000D80111962C91291301CFD8019C9198135E
:10189000FDCE7110FBCE8091350215968C93C80158
:1018A0000E941A0786E0F801A0E3B2E001900D92D1
:1018B0008A95E1F70E94100ACBCFF8012181291304
:1018C00032CFD8019C9198132ECF71102CCF8091DC
:1018D000350215968C93C8010E941A07E0E3F2E0E6
:1018E00086E0DF011D928A95E9F7B2CFD801119603
:1018F0002C91291351CFF801908198134DCF9091DD
:10190000350290FD57CF907F09F454CF8091350276
:101910008583903F09F4C3CF982F907F905F8F709D
:10192000892B8583BCCF609032026701C21AD30A2B
:10193000662009F412CF60E080E392E00E94D302B7
:1019400060E372E00E943E0A20913502207FC816B3
:10195000D90608F0C5CE809133029091340221114E
:101960008ACE672C892B49F0809130029091310208
:10197000282F29232F3F09F050CFB801C4010E941E
:101980003E0A843F914008F436CEE114F10429F078
:10199000852D84218F3F09F03DCF80E080FF2BCE45
:1019A000472D652D842D0E941E0A882309F423CE1D
:1019B00080E392E00E941A0786E0E0E3F2E0DF01B4
:1019C0001D928A95E9F70E94100A53CE1F93CF9378
:1019D000DF93CDB7DEB72C970FB6F894DEBF0FBEFE
:1019E000CDBF4F83588769877A878B879C87CE01C5
:1019F00007960E94B00A882369F08A859B85892B07
:101A000039F04F815885842F85238F3F09F071C0AD
:101A100016E05FC086E0FE013796DE011196019068
:101A20000D928A95E1F78A859B85892B89F38F81B1
:101A3000988589238F3F61F32091FF0130E0C90130
:101A40000196877099274091FE014817190671F495
:101A50000E945C071092FF011092FE0186E0E0E315
:101A6000F2E0DF011D928A95E9F7D2CF96E0929FCE
:101A7000D001939FB00D1124A050BE4FFE013196AE
:101A800001900D929A95E1F78093FF010E94EF0972
:101A9000BFCF819FC001112480509E4F0E94B00A89
:101AA0008823E9F0E091FE011E9FF0011124E0502F
:101AB000FE4F4081518162817381848195810E94B2
:101AC00095078091FE0190E0019687709927809399
:101AD000FE018091FE019091FF018913DACF2C96CF
:101AE0000FB6F894DEBF0FBECDBFDF91CF911F912F
:101AF000089569857A858B859C850E94950788CF96
:101B0000682F80910201909103010C94BE1D682FF3
:101B100080910201909103010C94C01D80910201FB
:101B2000909103010C94C21D809136028595859594
:101B300085950895809136028770089590913602B8
:101B4000977081E009F480E0089580914202089541
:101B500090914202892B8093420208958095909142
:101B600042029823909342020895109242020895EF
:101B700090914102892B8093410208958095909124
:101B800041029823909341020895109241020895D2
:101B900090914002892B8093400208958095909106
:101BA00040029823909340020895109240020895B5
:101BB00080913702089508950C94DB0D9091B10245
:101BC00092FD08C090913702981721F08093370258
:101BD0000C94DC0D089580913702882329F010922F
:101BE000370280E00C94DC0D0895E0910201F09141
:101BF0000301809142028083E0910201F091030190
:101C0000808190914102892B8083E0910201F091C3
:101C10000301808190914002892B8083909137024B
:101C2000992381F0E0910201F09103018081892BD9
:101C3000808380910201909103010E94761D8111A1
:101C40000E94EB0D80910201909103010C94311DD3
:101C500008950C94280E9091B10292FD10C098E066
:101C6000899F90011124622B609336020E9417080D
:101C7000809136028595859585950C94290E0C9456
:101C800017081092360280E00C94290E90913602CB
:101C90008095892380933602282F277091F4282F6E
:101CA000082E000C330B9217130659F09091B102D5
:101CB00092FD07C08595859585950E9438080C94FE
:101CC000410E08959091B10292FB222720F9281726
:101CD00069F080FB92F99093B1028091B0029091EB
:101CE000B1020E94A70E82E00C94460E08958091E6
:101CF000B10282FB882780F991E089270C94620E5B
:101D000081E00C94620E80E00C94620E90E080E022
:101D10000E94C22521E0893E9E4F09F020E0822FDB
:101D2000089582E090E00C94BA2583E090E00C9452
:101D3000BA25CF9384E090E00E94BA25C82F82E2B2
:101D400090E00E94BA25982F8C2FCF910895CF93C1
:101D5000C92F682F84E090E00E94C8256C2F82E292
:101D600090E0CF910C94C825AB01BC018FE090E0CE
:101D70000C94DA25AB01BC0183E190E00C94DA25E8
:101D800060E070E0CB010C94BA0E60E070E0CB0133
:101D90000E94B40E0C94C00E69EE7EEF90E080E0DD
:101DA0000E94E62560E082E090E00E94C82560E0A5
:101DB00083E090E00E94C8251092FA011092FB0186
:101DC0001092FC011092FD0160E084E090E00E941E
:101DD000C82560E082E290E00E94C82560E085E0CE
:101DE00090E00E94C82560E086E090E00E94C8254F
:101DF0006FEF87E090E00E94C82540E050E0BA0114
:101E000088E090E00E94DA2560E08DE090E00E949A
:101E1000C82540E050E0BA0188E190E00E94DA2550
:101E200060E087E190E00E94C82540E050E0BA0100
:101E30008CE190E00E94DA2570E060E080E290E0C2
:101E40000E94E62540E050E0BA0188E190E00E945F
:101E5000DA250C94C50E0C94CC0E682F8EE090E021
:101E60000C94C8250E94651E609352027093530221
:101E7000809354029093550260934E0270934F02E8
:101E80008093500290935102089585B7806885BF72
:101E900085B7806885BF0895089508950C944C0F08
:101EA00008950C94500F0E94450F8EE592E10E9418
:101EB000141D0E944D0F0C944E0F0C944A1408955B
:101EC00008950E945F0F0C94600F0E94501E0E94A4
:101ED0001D120E9432130E944E180C94510FAF92A3
:101EE000BF92CF92DF92EF92FF920F931F93CF9307
:101EF000DF93CDB7DEB72A970FB6F894DEBF0FBEDB
:101F0000CDBF0E94C01381110E94320F84E4A82E1D
:101F100082E0B82E10E000E0C02E802F0E948912CF
:101F2000E82EF501F1905F01F81609F44DC080919B
:101F3000560281FD0E948F128F2D8E25D12CFF24F9
:101F4000F394982F9F21D9F10E945D0F882399F077
:101F5000DE82CF82EF2081E009F480E088870E9452
:101F6000591E8160782F9A8789874E815F816885A5
:101F70008A850E947903F801EC5BFD4F8081F82689
:101F8000F0820E94CC170E941E1D90914302891777
:101F900091F10E941E1D809343022A960FB6F89479
:101FA000DEBF0FBECDBFDF91CF911F910F91FF908C
:101FB000EF90DF90CF90BF90AF900C947103D394CB
:101FC000FF0CF7E0DF12BDCF0F5F1F4F0A30110586
:101FD00009F0A2CF8FEF89838A831B820E94591E4A
:101FE0008160782F9D838C8349815A816B818D819B
:101FF0000E947903C6CF2A960FB6F894DEBF0FBEB3
:10200000CDBFDF91CF911F910F91FF90EF90DF90A7
:10201000CF90BF90AF90089590E080E0089508952C
:10202000972F70E027E0929F600D711D1124FB0136
:1020300096E4899FE00DF11D1124EE0FFF1FE4557A
:10204000FF4F859194910895FC01EE0FFF1FE85911
:10205000FC4F859194910895CF93DF930E94431193
:10206000EC01811520E5920708F042C0811530E4AB
:10207000930708F0BDC0883E910528F5803E910584
:1020800008F09DC0883A910588F4853A910508F0DA
:102090008FC08130910509F492C0009709F48FC078
:1020A000049708F08CC0D0E0C0E089C08F3B910558
:1020B00008F489C0805C9109C03CD105A0F30E945E
:1020C0002410EC017CC08115904250F4C11581E0D0
:1020D000D80708F074C0CD3ED10528F3D0656FC095
:1020E000C11590E3D90708F079C0CE019F70E7CF02
:1020F000811525E5920758F5811534E5930708F019
:10210000A6C0811542E5940750F4C11581E5D807B2
:1021100008F471C0DC2FCC27C16FD06A50C0982F53
:10212000969596959E0123703327C115D34508F0E7
:102130007FC0C1E0D0E002C0CC0FDD1F2A95E2F7DE
:1021400020E2929FC0011124C82BD92B6FC0C1156A
:1021500089E5D807A8F4C11598E5D90708F07CC02F
:10216000C11526E5D20708F09ECF8C2F0E94DA1108
:10217000C82FD0E0DC2FCC27CC27DF71D0621FC066
:10218000C1153AE5D30708F46CC0CE01905681150D
:10219000904208F088CF8D2F8F710E94DA1190E065
:1021A000982F882788279F719C012C2BE901E6CF67
:1021B000C55AD0E0C055DE4FC881D0E0D064CE0112
:1021C000DF91CF910895C85AD0E0CC0FDD1FCE57D4
:1021D000DE4F0990D881C02DD464F1CFCE0199276C
:1021E000D3FF03C0EC01D86CEACFEC01D06CE7CF91
:1021F000DF70D06AE4CFCE01E4E096958795EA954A
:10220000E1F783702C2F26952695237090E2299F65
:1022100090011124382B8C2F8370C1E0D0E002C0D4
:10222000CC0FDD1F8A95E2F7C22BD32BDC68C7CF1A
:10223000C1E0D0E002C0CC0FDD1F2A95E2F730E20A
:10224000939FC0011124C82BD92BDA68B8CFD82F9F
:10225000CC27C46FD06AB3CFDC2FCC27C06FD06A35
:10226000AECF8C2F8F700E94DA1134E0D695C795CF
:102270003A95E1F7CF709C2FEC01D069A0CF0E9476
:1022800010100C942C1082389105B1F1B0F4813308
:10229000910509F475C048F48932910509F469C0C3
:1022A0008A32910509F473C008958533910509F4C4
:1022B00059C08933910501F10895833E9105A9F133
:1022C00038F4803E9105F9F0823E910549F1089578
:1022D000863E9105A9F1873E9105C9F1843E91059D
:1022E00019F52091B10221FF1FC08091B00284FD39
:1022F00014C087EE90E008952091B0022370A1F001
:1023000080EE90E008952091B00220FD47C030910A
:10231000B10230FF09C024FF44C090E080E004C057
:102320002091B00222FDF7CF08952091B00222FD46
:102330003BC03091B10230FDE3CF24FFF5CFEDCFAC
:102340002091B00223FFF0CF24FDE7CFD2CF209120
:10235000B00223FD2CC03091B10231FFEECF84EEEC
:1023600090E008952091B00225FFDECF89E290E051
:1023700008952091B00225FFD7CF85E390E008951E
:102380002091B00226FFD0CF8AE290E008952091FC
:10239000B00226FFC9CF81E390E0089589E390E081
:1023A000089583EE90E0089582EE90E0089586EE21
:1023B00090E008959091B00292FF06C0282F2871F6
:1023C0002830F9F4877F846093FF06C0282F287196
:1023D0002831F1F4877E84612091B10220FF06C08C
:1023E000382F38713830D9F4877F816021FF06C0DB
:1023F000282F28712831D1F4877E816194FD877E52
:102400000895282F24712430F9F68B7F8860DCCF63
:10241000282F2471243101F78B7E8861DDCF382F7E
:102420003171313019F78E7F8860E0CF282F21710C
:10243000213121F78E7E8861E1CF1092AC0210929B
:10244000AD021092AE021092AF020895CF92DF92C9
:10245000EF92FF926B017C010E944A1481110EC021
:102460000E94651EC61AD70AE80AF90AC092AC0291
:10247000D092AD02E092AE02F092AF02FF90EF90E8
:10248000DF90CF9008950F931F930E944A148823E2
:1024900021F01F910F910C94651E0E94651E009102
:1024A000AC021091AD022091AE023091AF02600FEC
:1024B000711F821F931F1F910F91089580E008954F
:1024C00008950E94860E811102C00E942B0F0E9467
:1024D000910E809356020E94990E9093B1028093C0
:1024E000B0020E9460120E94950E682F70E090E08A
:1024F00080E00E94B5076091F6017091F70180912C
:10250000F8019091F9010C94EF07089508950C9447
:102510008612E82FF0E0E454FD4F8081089508957D
:1025200080EA8A95F1F7089500C008950C949012FE
:10253000F894E82FE295EF70F0E031A1282F2F708A
:1025400081E090E001C0880F2A95EAF7982F9095D6
:10255000932391A392A1892B82A37894089508953F
:102560000C94AF12CF93DF93CAEBD1E089918F3FE8
:1025700011F00E94981281E0CF3BD807B9F7C3EB66
:10258000D1E089918F3F11F00E94981281E0CA3BFF
:10259000D807B9F7DF91CF910895CF92DF92EF92EC
:1025A000FF920F931F93CF93DF93EC01D62E062F4C
:1025B00010E0C80186549E4F7C01FC0180818F3F52
:1025C00009F445C0F894E82FE295EF70F0E091A18E
:1025D0008F7021E030E001C0220F8A95EAF7892F41
:1025E000822B81A382A12095282322A378940E9484
:1025F0009412E3EBF1E04AEB51E031E0C12C219180
:102600002F3F71F1A22FA295AF70B0E090968C9100
:1026100090E02F7002C0959587952A95E2F780FD8E
:102620001FC0832FC82A330F4E175F0741F7F701EA
:1026300080818F3F11F00E94981261E0C11001C0AB
:1026400060E08D2D0E949612C00FD11FC882DF91CD
:10265000CF911F910F91FF90EF90DF90CF90089551
:1026600080E0E0CF0E946414809104018091040115
:1026700095E0811190E09093C70285E0891B8093DB
:10268000C6020E94B2128AE0ECEBF2E0DF01982F62
:102690001D929A95E9F7E2EBF2E0DF011D928A952F
:1026A000E9F785E00E9413140E94E9020C946E146D
:1026B000EF92FF920F931F93CF93DF9300D000D040
:1026C0000F92CDB7DEB70E944A14F82E6091C70270
:1026D000882309F448C085E0E82E8E010F5F1F4F64
:1026E000F8018E2D11928A95E9F7862F90E0B801B6
:1026F00084549D4F0E947C148823F9F08091C60277
:1027000090E045E050E0B80184549D4F0E94A4251C
:1027100021E020935702892BD1F4F12C0E94EF0283
:102720008F2D0F900F900F900F900F90DF91CF9102
:102730001F910F91FF90EF90089580915702882389
:1027400061F3F8011192EA94E9F710925702A0910F
:10275000C602B0E0A454BD4F85E0F80101900D928F
:102760008A95E1F7DBCF70E064547D4F8091C6021B
:1027700090E084549D4F0E9409150E94B012D0CF62
:10278000EF92FF920F931F93CF93DF93CDB7DEB7F6
:102790002A970FB6F894DEBF0FBECDBF8E010F5F34
:1027A0001F4F8AE0F80111928A95E9F7F12C6F2DFD
:1027B000C8010E94CD12F394F5E0FF12F8CF4AE071
:1027C00050E0B80182EB92E00E94A4257C0121E058
:1027D000892B09F420E0E114F10441F08AE0F801CA
:1027E000A2EBB2E001900D928A95E1F76091C702E9
:1027F00070E064547D4F45E082EB92E00E94141437
:1028000081E090E0EF2811F40E9458132A960FB649
:10281000F894DEBF0FBECDBFDF91CF911F910F9116
:10282000FF90EF9008950895FF920F931F93CF9319
:10283000DF93F82E092F162FD72FC42F222349F00C
:1028400081E080935A020E94591E9093590280930E
:10285000580280915A028823A1F0809158029091E9
:1028600059020E94711E059760F0EF2DF02FA12FE5
:10287000BD2FCE0FDF2FD11DEC17FD0741F41092B5
:102880005A02DF91CF911F910F91FF90089581918E
:102890008D93F2CF80915D02811107C00E94912536
:1028A000882351F081E080935D0281E090915D0288
:1028B000913009F080E0089582E080935D020E94EB
:1028C0008C25F3CF0C944A140E9462148093040167
:1028D0000E944A1481110C94B21408950E944A1463
:1028E000811102C00C94B414089581E090915E02AD
:1028F0009A3008F080E008950F931F93CF93DF93F1
:10290000EC018B0180915E028A30B8F4B801CE01EF
:102910000E940715C82F811122C080915E028F3F4F
:10292000B9F40E94591E90935C0280935B028C2F35
:10293000DF91CF911F910F91089580915B0290914B
:102940005C020E94711E843F914000F7C0E0EFCF0F
:102950008F5F80935E028A3020F7C1E0E8CF10924B
:102960005E02E5CF0C94531B0C94561BEF92FF9222
:102970000F931F93CF93DF937901C82F880FDD0B3F
:1029800041155105A9F08AE08C9FF0018D9FF00D53
:102990001124EB5FFE4F83819481815A9D4F2281E8
:1029A00030E04217530708F49A01A9010E94B125AB
:1029B000CE010E94601C892B11F501151105E9F06B
:1029C0008AE08C9FF0018D9FF00D1124EB5FFE4F8C
:1029D000458150E00417150708F4A8018AE08C9F90
:1029E000F0018D9FF00D1124EB5FFE4F6681778122
:1029F000615A7D4FC7010E94B12581E001C080E08E
:102A0000DF91CF911F910F91FF90EF9008950C945B
:102A100020160C943C160F931F93CF93DF9300D096
:102A200000D0CDB7DEB760917602709177028091C9
:102A30007802909179020E94801E11E0643671053F
:102A40008105910518F10E9443126E5F7F4F8F4FF1
:102A50009F4F69837A838B839C8310E000E030E092
:102A600020E044E050E0BE016F5F7F4F82E00E94B3
:102A7000B614182F882351F00E94651E60937602C9
:102A8000709377028093780290937902812F0F9050
:102A90000F900F900F90DF91CF911F910F9108959C
:102AA000AF92BF92CF92DF92EF92FF920F931F935C
:102AB000CF93DF9300D000D000D0CDB7DEB77B013D
:102AC000C090C401D090C50101E010E09E012A5FD2
:102AD0003F4F50E040E070E060E080E00E94B614BC
:102AE000182F882309F448C056018FEFA81AB80A96
:102AF00060917202709173028091740290917502DC
:102B00000E94801E643671058105910568F105E01B
:102B100010E09E012F5F3F4F50E040E070E060E02A
:102B200081E00E94B614D82E65E070E0C5010E94D5
:102B30004F1811E09E81981310E01D2141F10E9471
:102B4000651E609372027093730280937402909377
:102B5000750285E0FE013196ADE6B2E001900D927E
:102B60008A95E1F711E013C065E070E0C5010E94AD
:102B70004F189E818913CBCF85E0F6013196DE0197
:102B8000119601900D928A95E1F71111E2CF85E03F
:102B9000EDE6F2E0D70101900D928A95E1F7812FE1
:102BA00026960FB6F894DEBF0FBECDBFDF91CF9152
:102BB0001F910F91FF90EF90DF90CF90BF90AF905B
:102BC0000895AF92BF92CF92DF92EF92FF920F9350
:102BD0001F93CF93DF937C015B016A010E94751400
:102BE00001E010E0882311F00AE010E0C1E0D0E03D
:102BF000F894B501C701F60109957894811104C0D4
:102C000021960C171D075CF4DF91CF911F910F9156
:102C1000FF90EF90DF90CF90BF90AF900895CC9F42
:102C20009001CD9F300D300D112490E080E045E300
:102C30004A95F1F70000019682179307C1F7D8CFA4
:102C40000F931F93CF93DF93EC018B0140E555E188
:102C50000E94E115882351F04BE055E1B801CE0107
:102C6000DF91CF911F910F910C94E11580E0DF91DE
:102C7000CF911F910F9108950F931F93CF93DF93DF
:102C8000F894C091C401D091C501CE01019625E010
:102C9000FB01DC0101900D922A95E1F765E070E0FF
:102CA0000E944F1888837894F8946E817F8188857C
:102CB00099850091690210916A0220916B0230910E
:102CC0006C02601771078207930751F060936902E5
:102CD00070936A0280936B0290936C020E9426129A
:102CE0007894DF91CF911F910F9108950E946020F9
:102CF0000E94650F0C946C200E9470200E946F0F40
:102D00000C948A200E94E31D0E9447200E94530FCA
:102D10000E9476160E947C160E94610FFBCF809164
:102D2000430190E0880F991FFC01E55CFE4F208174
:102D3000855D9E4FFC01808190918002191614F4EC
:102D4000209380029091800297FF04C0922F91956A
:102D50009093800290918102191614F420938102BD
:102D60009091810297FF03C0219520938102909159
:102D70008302191614F4809383029091830297FFC3
:102D800004C0982F91959093830290918202191616
:102D900014F4809382029091820297FF03C0819580
:102DA00080938202309180023323A1F0209181022E
:102DB000222381F045EB3403C00111249923F1F063
:102DC0009093800245EB2403900111243323D1F02A
:102DD0003093810240918302442379F03091820242
:102DE000332359F025EB4203A001112450938302B1
:102DF00032039001112430938202089581E0809380
:102E00008002E0CF81E080938102E4CF40914301D2
:102E1000242F30E0220F331FF901E55CFE4F908133
:102E20008D3E21F491959093810208958E3ED9F3C1
:102E30008F3E21F49195909380020895803FD9F3BD
:102E4000255D3E4FF9019081893F19F490938202EC
:102E500008958A3F11F49195F9CF8B3F21F4919514
:102E60009093830208958C3FD9F39FE0980F983098
:102E700070F4815F990B21E030E001C0220F8A9548
:102E8000EAF780917F02822B80937F0208958D3F25
:102E900049F481E08093430180914301481751F048
:102EA0000C948F168E3F11F482E0F4CF8F3F11F413
:102EB00083E0F0CF08958D3E39F48091810287FF41
:102EC00029C01092810208958E3E29F480918102DA
:102ED0001816BCF308958F3E39F48091800287FF65
:102EE00019C0109280020895803F29F480918002D9
:102EF0001816BCF30895893F39F4809182021816A0
:102F00004CF41092820208958A3F29F48091820243
:102F100087FDF7CF08958B3F39F48091830287FFB7
:102F2000F9CF1092830208958C3F29F48091830297
:102F30001816BCF308959FE0980F983058F7815FFA
:102F4000990B21E030E0A90102C0440F551F8A957A
:102F5000E2F7CA01809590917F02892380937F02D6
:102F6000D9CF0E94591E9C019091800280918102CC
:102F7000982B21F030937D0220937C029091820265
:102F800080918302982B21F030937B0220937A0268
:102F90008EE792E00C943C1DEF92FF920F931F93EB
:102FA000CF93DF9300D000D000D0CDB7DEB786E05E
:102FB000EEE7F2E0DE01119601900D928A95E1F7BD
:102FC000E0908002F09081020091820210918302D1
:102FD000109280021092810210928202109283025B
:102FE0008E2D8F29B1F080917C0290917D020E94FC
:102FF000711EE0914301F0E0EE0FFF1FED5CFE4F0C
:10300000208131812817390720F4E0928002F09264
:103010008102802F812BB1F080917A0290917B0206
:103020000E94711EE0914301F0E0EE0FFF1FED5D85
:10303000FE4F208131812817390720F40093820246
:10304000109383028091800290918102892B90914C
:103050008202892B90918302892B11F00E94B11773
:1030600086E0FE013196AEE7B2E001900D928A95BE
:10307000E1F726960FB6F894DEBF0FBECDBFDF9105
:10308000CF911F910F91FF90EF90089586E0EEE7AA
:10309000F2E0DF011D928A95E9F708950895FC0199
:1030A000680F791F8FEF91E36E177F0709F408957A
:1030B0002191822728E030E087FF06C0880F89270A
:1030C00021503109C9F7F0CF880FFACFCF93DF93A2
:1030D000EC01FB018281882309F420C1C430FDE5A5
:1030E000DF07C8F5CB3F9CE5D90730F49E0122509D
:1030F0003C452431310598F50E94990E9093B10218
:103100008093B002C031FCE5DF0709F4E0C008F0AD
:1031100061C0C8309CE5D90709F4CBC088F5C4303C
:10312000FCE5DF0709F4B3C0E8F4C2309CE5D90739
:1031300009F4A7C08091B0028260C330DC4509F475
:10314000A3C08091B0029091B1020E94A70E0E948C
:103150005C0780E004C0C236EDE5DE0769F2DF916E
:10316000CF9108958091B0028061C630FCE5DF0701
:1031700009F48AC008F48FC08091B002806284C0D4
:103180008091B0028D7FCC309CE5D90709F47CC0DA
:1031900070F48091B0028C60CA30FCE5DF0709F45E
:1031A00073C008F48AC08091B0028E7F6DC0809198
:1031B000B002877FCE309CE5D90709F465C08091C5
:1031C000B0028B7FCF30DC4508F45EC08091B00246
:1031D0008F7E5AC0CD3FFCE5DF0709F474C040F58F
:1031E000C4319CE5D90709F48AC058F4C231FCE522
:1031F000DF0709F474C008F46EC08091B002837FC9
:1032000043C0CB3F9CE5D90709F449C008F04DC045
:10321000C531DC4509F095CF8091B00282FB99273A
:1032200090F921E0922790FB82F990FB83F92CC062
:10323000C1308DE5D80709F458C088F48091B102F7
:103240008360CF3FECE5DE0769F18091B1028D7FAD
:10325000C115DD4538F18091B1028C7F23C0C330A8
:103260008DE5D80709F458C008F452C0C236DD45D0
:1032700009F067CF9091B002892F8F7E94FF806113
:1032800003C08091B00281608093B0025ACF8091D8
:10329000B0028460F9CF8091B0028860F5CF809150
:1032A000B10281608093B1024CCF8091B102826003
:1032B000F9CF8091B0028064E7CF0E945C078091D3
:1032C000B0028068E1CF8091B1028E7FEBCF809118
:1032D000B0028F7DD9CF8091B0028F7BD5CF0E9475
:1032E0005C078091B0028F77CFCF8091B102982F89
:1032F000909591708E7F892B90FB81F9D3CF0E949E
:103300005C079091B002892F97FB87F98058BCCF5A
:1033100081E00E942D0F15CF80E0FBCF81E01FCF11
:10332000CF93DF93EB0186319C4511F50E94A50DEB
:103330009A81992399F08A7A91E009F490E0909328
:103340008402811109C089E20E94800D0E94F50D5E
:1033500080E0DF91CF91089585E3F6CF80918402DC
:10336000811104C089E20E94870DF0CF85E3FBCF75
:1033700081E0EFCF0895089580919202811114C0E9
:103380000E94BA1981E0809392020E94591E909384
:1033900091028093900210928502E6E8F2E08AE0C2
:1033A000DF011D928A95E9F708951F93CF93DF936C
:1033B000EC01FB011281111106C011E0812FDF9198
:1033C000CF911F91089580919202882351F18091AD
:1033D0009002909191020E94711E8C32914068F788
:1033E000CE019056811520E2920720F0905E811563
:1033F000904108F4DD2780918502853068F4E82F3C
:10340000F0E0EE0FFF1FEA57FD4FD183C0838F5FBF
:103410008093850210E0D2CF109292020E94BB19D5
:10342000F9CFC932DD4549F60E94BC19C7CFAF922A
:10343000BF92CF92DF92EF92FF920F931F93CF93A1
:10344000DF937C015B01C42FD22FFC018281882392
:10345000F9F0409395020E94591E90939402809334
:10346000930280E28C0F883008F061C0C77081E061
:1034700001C0880FCA95EAF7DF91CF911F910F9194
:10348000FF90EF90DF90CF90BF90AF900C94C3046B
:1034900010919502141340C0809193029091940270
:1034A0000E94711E6C01B701C5010E943E0AC81638
:1034B000D90690F5C0E2CD0F1D17B9F080E2810F5B
:1034C000883040F4177081E001C0880F1A95EAF740
:1034D0000E94CA04C83048F481E09D2F977001C053
:1034E000880F9A95EAF70E94C304802F0E94BB04BC
:1034F000C830E8F4D77081E001C0880FDA95EAF7A8
:10350000DF91CF911F910F91FF90EF90DF90CF90BF
:10351000BF90AF900C94CA0480E28C0F883038F4CE
:10352000C77081E001C0880FCA95EAF7E9CFDF9143
:10353000CF911F910F91FF90EF90DF90CF90BF90B0
:10354000AF9008950F939C01CB01243F4CE53407C5
:1035500059F1A8F4293DFCE53F0701F12A3D4CE56E
:103560003407D1F1283D3C4591F406E221EE41EECD
:1035700068ED7CE50E94171A80E00F910895263FC0
:10358000FCE53F07E9F0B0F0273F3C45F9F0FC01CE
:103590008281882339F110929502EFCF07E225EE60
:1035A00045EE69ED7CE5E6CF06E221EE40EE64EF04
:1035B0007CE5E0CF07E225EE44EE65EF7CE5DACF6F
:1035C00006E221EE42EE66EF7CE5D4CF07E225EE7F
:1035D00046EE67EF7CE5CECF08E221E045EE6AEDEE
:1035E0007CE5C8CF81E0C9CF8EE1489B02C0815005
:1035F000E1F7489BFECF0895589880E28A95F1F74D
:10360000589A0895FC013BE03A95F1F798E020E0E4
:1036100080E031E040E14A95F1F7880F489B02C015
:103620008160232742E04A95F1F7000040E14A9586
:10363000F1F7915079F790E19A95F1F799B132E06D
:103640003A95F1F7000040E14A95F1F79170922721
:103650002081920F90830895EF92FF920F931F9312
:10366000CF93DF930F92CDB7DEB719828C017C0127
:10367000E60EF11C0E151F0561F481E09981911190
:1036800080E00F90DF91CF911F910F91FF90EF900D
:1036900008950E94F41ACE0101960E94021BF801BF
:1036A00081938F01E7CF509A589A08955098589A6D
:1036B000E89AE9E6F0E080818C7F8083089561508C
:1036C000770B91E001C0990F6A95EAF720E031E0AD
:1036D000911108C0222391F0589A80E28A95F1F75F
:1036E00058980895492F482339F0589A232740E2E3
:1036F0004A95F1F79695ECCF5898F9CF5898EDCFB9
:10370000FF920F931F93CF93DF93EC018C01060F71
:10371000111DC017D10731F4DF91CF911F910F9187
:10372000FF900895F9900E94FC1A68E08F2D0E9486
:103730005F1BEFCF1F920F920FB60F921124EF92E3
:10374000FF920F931F932F933F934F935F936F932A
:103750007F938F939F93AF93BF93EF93FF93CF93F9
:10376000DF930F92CDB7DEB719820E94F41ACE0113
:1037700001960E94021BA82FA695A695A695282F14
:10378000229525709A2F9570290F922F9370269568
:103790002695920F982797708981982B09F075C00C
:1037A000A43008F072C080E18A95F1F7589A509AD7
:1037B000B2E0BA95F1F700C05898EA2EF12CEAE091
:1037C000AE9FD0011124AB5FBE4F1896ED91FC91D6
:1037D00019973097B1F06091C4017091C5011696A8
:1037E0002D913C911797260F371F13968D919C9121
:1037F0001497680F791F15964C91159712968C9116
:1038000009958AE08E9DF0018F9DF00D1124EB5FEC
:10381000FE4F6581662351F02091C4013091C501AE
:1038200086819781820F931F0E94801B0E94FC1A41
:10383000F0E1FA95F1F758985098589A80E18A95F6
:10384000F1F78AE08E9D80018F9D100D11240B5F92
:103850001E4FD80112966C911297662371F1209138
:10386000C4013091C50113968D919C91820F931FD5
:103870000E942C1BD801ED91FC91882311F088E067
:1038800001C082E080830E94F41A0F90DF91CF91F3
:10389000FF91EF91BF91AF919F918F917F916F9128
:1038A0005F914F913F912F911F910F91FF90EF905A
:1038B0000F900FBE0F901F901895ED91FC91DFCFE8
:1038C0000F931F93CF93DF93EC0104970CF0A9C0E3
:1038D0008AE08C9FF0018D9FF00D1124EB5FFE4F6D
:1038E00080819181892B09F49CC0F894509A589852
:1038F00085E08A95F1F700008C2F869585709C2FC6
:103900009570890F982F937086958695890F8E01F3
:1039100093E0000F111F9A95E1F7082B0E94FC1A03
:1039200000C068E0802F0E945F1BA0E1AA95F1F71C
:103930005098589A489B27C087E090E0489925C046
:103940008AE08C9F80018D9F100D11240B5F1E4F0C
:10395000F80165816623A1F12091C4013091C50170
:1039600086819781820F931F0E942C1B811128C092
:10397000509A589AD801ED91FC9182E08083789416
:1039800082E090E016C000C0D5CF0197B9F4509AFC
:10399000589A8AE08C9FF0018D9FF00D1124EB5F07
:1039A000FE4F0190F081E02D81E08083789481E0EA
:1039B00090E0DF91CF911F910F91089500C0BECF8D
:1039C0000E94F41AB0E2BA95F1F75898509AE0E1E3
:1039D000EA95F1F78AE08C9FF0018D9FF00D11249C
:1039E000EB5FFE4F6281662351F02091C40130915C
:1039F000C50183819481820F931F0E94801B0E94C6
:103A0000FC1A8AE08C9FF0018D9FF00D1124EB5F72
:103A1000FE4F0190F081E02D1082789490E080E0DC
:103A2000C8CF84E090E0C5CF9093C7018093C601D2
:103A3000089590939C0280939B0208950E944A14DB
:103A4000811103C0809196020895E0919B02F0914C
:103A50009C02309721F00190F081E02D099480E0E4
:103A60000895E0919B02F0919C02309721F0028032
:103A7000F381E02D09940895E0919B02F0919C025E
:103A8000309739F022E0DC012C930480F581E02DA1
:103A9000099408952091990230919A0228173907C4
:103AA00071F090939A0280939902E0919B02F091B9
:103AB0009C02309721F00680F781E02D099408954B
:103AC00020919702309198022817390771F090934E
:103AD000980280939702E0919B02F0919C023097AC
:103AE00021F00084F185E02D099408959C012E5F5A
:103AF0003F4FAC01485F5F4F80E02417350709F462
:103B00000895F90191919F019923B9F38F5FF5CF42
:103B1000662349F0FC01329608962191261729F078
:103B2000E817F907D1F780E0089581E008959C0136
:103B3000FC0132969FEF80E04191461751F09F3F84
:103B400019F4411101C0982F8F5F8630A9F79F3F6C
:103B500009F40895290F311D97FD3A95F901628303
:103B60000895FC01329608962191261303C0DF01C7
:103B700011971C92E817F907B9F708950C94971D4F
:103B80000C94B11D029626E0FC0111922A95E9F7EA
:103B9000089508950C94C91D811105C081E080939A
:103BA0009D020C94CA1D82E0FACF83E080939D02AF
:103BB0000C94CA1D0C94CC1D81E080939D020C9442
:103BC000CA1D0C94DC1D08958091D102843031F11E
:103BD0000E94F50210929E0288E190E020E40FB668
:103BE000F894A895809360000FBE2093600083B77F
:103BF000817F846083BF83B7816083BF7894889519
:103C000083B78E7F83BF0FB6F894A895809160002C
:103C1000886180936000109260000FBE089508953F
:103C20000895CF930E940F1E0E94C0130E94101E81
:103C3000C0E08C2F0E948912811105C0CF5FCA306D
:103C4000C1F7CF91089581E0FCCF0E945C070C94EE
:103C500063031F921FB61F9211248F939F93AF93FC
:103C6000BF9380919E02811113C08091C9029091EF
:103C7000CA02A091CB02B091CC024196A11DB11D08
:103C80008093C9029093CA02A093CB02B093CC0256
:103C9000BF91AF919F918F911F901FBE1F9018955C
:103CA00082E084BD93E095BD9AEF97BD80936E004E
:103CB00008952FB7F8948091C9029091CA02A091FB
:103CC000CB02B091CC022FBF08952FB7F89460912A
:103CD000C9027091CA028091CB029091CC022FBF91
:103CE00008959C014FB7F8948091C9029091CA023F
:103CF000A091CB02B091CC024FBF821B930B0895D1
:103D0000CF92DF92EF92FF922FB7F894C090C90242
:103D1000D090CA02E090CB02F090CC022FBFA70156
:103D20009601261B370B480B590BCA01B901FF90AE
:103D3000EF90DF90CF90089578941F921FB61F9256
:103D400011248F939F93AF93BF938091C902909159
:103D5000CA02A091CB02B091CC020196A11DB11D67
:103D60008093C9029093CA02A093CB02B093CC0275
:103D7000BF91AF919F918F911F901FBE1F9018957B
:103D800087E797E7909301088093000888E19AE01D
:103D90000FB6F894A895809360000FBE90936000D2
:103DA000FFCF8091AA02089508959C0182E080933C
:103DB000E9009FEF8091E800915085FD06C085EDF8
:103DC0008A95F1F700009111F5CF8091E80085FF09
:103DD0000CC050E040E066E070E0C9010E94FB20AA
:103DE0008091E8008E778093E8000895CF93DF9369
:103DF000EC0181E08093E9008FEF9091E800815021
:103E000095FD06C095ED9A95F1F700008111F5CF6B
:103E10008091E80085FF14C050E040E068E070E069
:103E2000CE010E94FB208091E8008E778093E8000D
:103E300088E0FE01A2EAB2E001900D928A95E1F7D6
:103E4000DF91CF91089580939F027093A1026093B8
:103E5000A0028091D102843001F582E08093E900D4
:103E60008FEF9091E800815095FD06C095ED9A95F1
:103E7000F1F700008111F5CF8091E80085FF0DC0BA
:103E800050E040E063E070E08FE992E00E94FB20A8
:103E90008091E8008E778093E8000895BC0184E06B
:103EA0000C94231FBC0183E00C94231F8091D0024B
:103EB000811109C00E948B220E94E8228091E200B9
:103EC00084608093E20008951092D00208950C94CB
:103ED000DC1D6091CD0281E0611101C080E00C9495
:103EE000D51D9091D10281E0943009F080E060917D
:103EF000CD020C94DA1D42E061EC81E00E940722C1
:103F000042E261EC82E00E9407229091D10281E0BE
:103F1000943009F080E06091CD020C94CC1D80912A
:103F2000D302833009F460C030F48130C9F18230AB
:103F300009F49CC008958A3009F488C08B3009F4D4
:103F40006EC0893009F04FC08091D202813209F0F1
:103F50004AC08091D6029091D702029708F043C0E0
:103F60008091E800877F8093E8008091E80082FFDD
:103F700036C09091F3008091F200029731F4809165
:103F8000F100813011F0863021F48091F1008093AE
:103F9000AA028091E8008B778093E8000C943B2282
:103FA0008091D202813AF9F48091E800877F809372
:103FB000E8008091D6029091D702892B61F468E0E5
:103FC00082EA92E070E00E944A218091E8008B77BB
:103FD0008093E800089560E090E080E0F3CF809166
:103FE000D1028111C2CF08958091D202813AD9F7CE
:103FF0008091D6029091D702892BA9F78091E80091
:10400000877F8093E8008091E80080FFFCCF80915B
:1040100050018093F1008091E8008E77BDCF8091B0
:10402000D202813201F78091D6029091D702892B7A
:10403000D1F68091E800877F8093E8000E943B22C0
:104040008091D402809350010C945C078091D2023D
:10405000813249F68091E800877F8093E8000E94D2
:104060003B228091D5028093AB0208958091D202C9
:10407000813A09F0B8CF8091E800877F8093E8000B
:104080008091E80080FFFCCF8091AB02C2CF84B763
:10409000877F84BF0FB6F894A895809160008861EF
:1040A00080936000109260000FBE80E890E00FB631
:1040B000F89480936100909361000FBE0C94E11D11
:1040C0000E948B220E94E822E2EEF0E08081846070
:1040D000808378940C94712584E491E00C94191DEC
:1040E0008091D1028530A9F48091D102853011F000
:1040F0000C94251E0E94E41D8091CF028823A1F319
:104100000E94111E882381F30E94E5200E945C0713
:10411000EBCF089508950C948D20292F3327233059
:10412000310519F168F42130310509F444C0223019
:10413000310509F445C090E080E030E020E025C082
:104140002132310549F122323105A9F780E490E0AE
:1041500026E534E061157105C1F08BE790E02BEDA9
:1041600033E06130710589F0E6CF99278130910500
:1041700081F0009729F00297F1F6E8E6F3E002C03B
:10418000EAE8F3E0849190E09F01FA013183208313
:104190000895ECE7F3E0F6CF89E090E020EA33E021
:1041A0006115710591F389E090E029EB33E061300E
:1041B000710559F3C0CF82E190E029EC33E0E5CFFF
:1041C0008BE390E02EE833E0E0CF80E189BD82E12F
:1041D00089BD09B400FEFDCF8091D8008F7D80930A
:1041E000D8008091E00082608093E0008091E00040
:1041F00081FDFCCF0895AF92BF92CF92DF92FF92E4
:104200000F931F93CF93DF936C01EB018A010E9400
:104210005A22F82E811123C00115110539F0F80139
:1042200080819181C81BD90BC80ED91EB12CA12C3D
:104230002097A9F08091E80085FD22C08091E800D8
:104240008E778093E80001151105A1F0F8018081B7
:104250009181A80EB91EB182A08285E0F82E8F2D23
:10426000DF91CF911F910F91FF90DF90CF90BF9082
:10427000AF9008950E945A228823D1F2F82EEFCFF2
:10428000F60181916F018093F1002197FFEFAF1A42
:10429000BF0ACECFFC018091D8029091D902861737
:1042A0009707A0F06115710529F49091E8009E77B9
:1042B0009093E80090E06115710551F4911108C0E8
:1042C0008091E80082FF34C080E00895BC01F2CF05
:1042D0008091D1028823C1F18530C1F18091E8003D
:1042E00083FD30C08091E80082FDEACF8091E80034
:1042F00080FFE1CF8091F3002091F200382F61150B
:10430000710519F02830310558F091E02830310559
:1043100009F090E02091E8002E772093E800CBCFC1
:1043200081918093F100615071092F5F3F4FE7CF7A
:104330008091D102882341F0853041F08091E800DE
:1043400083FFBECF81E0089582E0089583E0089561
:10435000FC018091D8029091D90286179707A0F0AE
:104360006115710529F48091E8008E778093E8004B
:1043700090E06115710551F4911108C08091E80039
:1043800082FF35C080E00895BC01F2CF8091D10258
:104390008823C9F18530C9F18091E80083FD31C0DF
:1043A0008091E80082FDEACF8091E80080FFE1CFB4
:1043B0008091F3002091F200382F6115710519F0FA
:1043C0002830310558F091E02830310509F090E0AF
:1043D0008091E8008E778093E800CBCF8491809322
:1043E000F1003196615071092F5F3F4FE6CF809108
:1043F000D102882341F0853041F08091E80083FFAD
:10440000BDCF81E0089582E0089583E00895982F5C
:10441000973028F08F708093E90081E008959093A1
:10442000E900242F762F50E0981731F07091EC00BE
:104430002091ED005091F00021FD02C09F5FE8CF78
:104440003091EB003E7F3093EB003091ED003D7FEB
:104450003093ED003091EB0031603093EB007093BE
:10446000EC002093ED005093F0002091EE0027FD2A
:10447000E5CF80E008958091D20287FF13C080913C
:10448000E80082FF06C08091E8008B778093E80007
:1044900004C08091D1028111F2CF08958091D102A0
:1044A0008823D9F38091E80080FFF8CF8091E8005D
:1044B0008E77ECCF2091E4003091E50095E6A901DC
:1044C0002091EC00822F817020FF06C08091E800CF
:1044D00080FF06C080E008952091E80022FD1AC008
:1044E0008091D102882389F0853089F08091EB009A
:1044F00085FD0FC02091E4003091E500421753077D
:10450000F9F29150E1F684E0089582E0089583E0A5
:10451000089581E008950E94F9220E940123E0EEAF
:10452000F0E0808181608083E8EDF0E080818F772A
:10453000808319BCA7EDB0E08C918E7F8C93808135
:104540008F7E80831092D00208950F931F93CF9394
:10455000DF930E94F9220E940123C8EDD0E08881F8
:104560008F77888388818068888388818F7D88831E
:1045700019BC1092D1021092CD021092CF0210926B
:10458000CE0200EE10E0F80180818B7F808388816D
:104590008160888342E060E080E00E940722E1EED3
:1045A000F0E080818E7F8083E2EEF0E080818160A8
:1045B0008083808188608083F80180818E7F808302
:1045C000888180618883DF91CF911F910F91089539
:1045D000E8EDF0E080818F7E8083E7EDF0E0808180
:1045E0008160808384E082BF81E08093D0020C945C
:1045F000A522E8EDF0E080818E7F80831092E200BA
:1046000008951092DA001092E10008951F920F921F
:104610000FB60F9211242F933F934F935F936F9395
:104620007F938F939F93AF93BF93EF93FF9380916B
:10463000E10082FF0BC08091E20082FF07C0809101
:10464000E1008B7F8093E1000E9470258091DA0069
:1046500080FF19C08091D80080FF15C08091DA00DA
:104660008E7F8093DA008091D90080FF96C080E130
:1046700089BD82E189BD09B400FEFDCF81E0809350
:10468000D1020E94561F8091E10080FF19C08091E5
:10469000E20080FF15C08091E2008E7F8093E200EF
:1046A0008091E20080618093E2008091D800806276
:1046B0008093D80019BC85E08093D1020E94691FC5
:1046C0008091E10084FF2BC08091E20084FF27C02D
:1046D00080E189BD82E189BD89B5982F917080FF05
:1046E000FBCF8091D8008F7D8093D8008091E1002E
:1046F0008F7E8093E1008091E2008F7E8093E200C4
:104700008091E20081608093E2008091CD02882355
:1047100009F449C084E08093D1020E94711F809106
:10472000E10083FF29C08091E20083FF25C08091D2
:10473000E100877F8093E10082E08093D1021092B4
:10474000CD028091E1008E7F8093E1008091E200B4
:104750008E7F8093E2008091E20080618093E2008E
:1047600042E060E080E00E9407228091F0008860D3
:104770008093F0000E94671FFF91EF91BF91AF916E
:104780009F918F917F916F915F914F913F912F9169
:104790000F900FBE0F901F90189519BC1092D10268
:1047A0000E94641F70CF8091E30087FD93E0909397
:1047B000D102B3CF1F920F920FB60F9211242F93F5
:1047C0003F934F935F936F937F938F939F93AF9399
:1047D000BF93CF93DF93EF93FF93D091E900DF7006
:1047E0008091EC00C82FC17080FDC0E81092E900F4
:1047F0008091F000877F8093F00078940E941E24BF
:104800001092E9008091F00088608093F000CD2B39
:10481000CF70C093E900FF91EF91DF91CF91BF91ED
:10482000AF919F918F917F916F915F914F913F9148
:104830002F910F900FBE0F901F9018951F93CF933D
:10484000DF93CDB7DEB7AA970FB6F894DEBF0FBEE1
:10485000CDBF82ED92E02091F100FC012193CF01C8
:10486000F2E08A3D9F07B9F70E948F1F8091E80010
:1048700083FF1EC18091D2029091D3029A3008F03A
:1048800017C1E92FF0E0E45EF94D0C949E258038C5
:1048900099F0823809F00CC18091D6028F70873070
:1048A00008F006C18093E9008091EB0085FB882722
:1048B00080F91092E90006C08091CE029091CF025B
:1048C000911182609091E800977F9093E800809327
:1048D000F1001092F1008091E8008E77E5C0882306
:1048E00009F4D3C0823009F0E3C08091D402811171
:1048F000D6C08091D6028F702FEF280F263008F097
:10490000D7C08093E9002091EB0020FFC8C093300E
:1049100031F48091EB0080628093EB00C0C09091F5
:10492000EB0090619093EB0021E030E001C0220F9A
:104930008A95EAF72093EA001092EA008091EB0052
:104940008860EACF8111B4C01091D4021F778091A2
:10495000E3008078812B8093E3008091E800877FDB
:104960008093E8000E943B228091E80080FFFCCF0A
:104970008091E30080688093E30082E0111183E07E
:104980008093D10295C08058823008F091C0809108
:10499000D4029091D5028C3D23E09207A1F583E0EB
:1049A0008A838AE289834FB7F894DE01139620E068
:1049B0003EE051E2E32FF0E050935700E49120FFF6
:1049C00003C0E295EF703F5FEF708E2F90E0EA300A
:1049D000C0F0C7968D939D932F5F243159F74FBF39
:1049E0008091E800877F8093E8006AE270E0CE0162
:1049F00001960E944A218091E8008B778093E8001D
:104A000057C0C096E7CF6091D6027091D702AE0131
:104A10004F5F5F4F0E948B20BC01892B09F448C077
:104A20009091E800977F9093E80089819A810E9495
:104A3000A821E1CF8038E1F58091E800877F80935D
:104A4000E8008091CD028093F10045CF811130C004
:104A50009091D402923060F58091E800877F809336
:104A6000E8009093CD020E943B228091CD028823E2
:104A700011F084E005C08091E30087FDFACF81E06A
:104A80008093D1020E947B1F13C08091D402813099
:104A900079F481E0933009F080E08093CF021092A6
:104AA000E9008091E800877F8093E8000E943B2224
:104AB0008091E80083FF0AC08091E800877F80939F
:104AC000E8008091EB0080628093EB00AA960FB61D
:104AD000F894DEBF0FBECDBFDF91CF911F91089537
:104AE0000895CF938091D1028823A1F0C091E9006D
:104AF000CF709091EC00892F817090FD80E8C82BD9
:104B00001092E9008091E80083FD0E941E24CF707E
:104B1000C093E900CF9108950E948B221092D10298
:104B20000895E8EDF0E08081806180838AE18A95D4
:104B3000F1F700C08091D90081700895EE0FFF1F3A
:104B40000590F491E02D0994FB01DC0104C08D91E6
:104B50000190801921F441505040C8F7881B990BEF
:104B60000895FB01DC0102C001900D9241505040BC
:104B7000D8F70895F999FECF92BD81BDF89A99278B
:104B800080B50895A8E1B0E042E050E00C94EE2535
:104B9000262FF999FECF92BD81BDF89A019700B4F6
:104BA000021639F01FBA20BD0FB6F894FA9AF99A96
:104BB0000FBE08950396272F0E94C9250E94C8257D
:104BC000252F0E94C925242F0C94C9250196272F33
:104BD0000E94C9250C94C825DC01CB01FC01F99980
:104BE000FECF06C0F2BDE1BDF89A319600B40D9239
:104BF00041505040B8F70895F894FFCF0B050B05CE
:104C00003C053C05CF05EB056B056B05F6058206FB
:104C100091069106E9066B056B05F2066B076B07BB
:104C20007407740776077407740774076B076B07BC
:104C30007B07740774077B0747246F2458256F246C
:0C4C40005825A224C32458251A25262537
:104C4C007800380201C8020000000100000000C812
:104C5C00020000000501000000C80204060000006C
:104C6C000000002800780064003C000100010001F5
:104C7C0000010010001C00100010001000040008BF
:104C8C0000140002D11EF61ED51E521F4E1FD41E3C
:104C9C0001E200E900EA00B500B600B700CD0083E0
:104CAC0001CC008A019201940121022302240225E5
:104CBC0002260227022A02B300B4006F00700081A2
:104CCC008283E200E900EA00B500B600B700CD002F
:104CDC008301CC008A019201940121022302240257
:104CEC002502260227022A02B300B4006F007000CE
:104CFC00818283F4F5F6F73133329497C63435005C
:064D0C00000000005F0240
:00000001FF
