:100000000C9405020C94541B0C944C020C944C025E
:100010000C944C020C944C020C944C020C944C0228
:100020000C944C020C944C020C94C0220C9494231B
:100030000C94E31D0C944C020C944C020C944C0256
:100040000C944C020C944C020C944C020C944C02F8
:100050000C944C020C94561E0C944C020C944C02C2
:100060000C944C020C944C020C944C020C944C02D8
:100070000C944C020C944C020C944C020C944C02C8
:100080000C944C020C944C020C944C020C944C02B8
:100090000C944C020C944C020C944C020C944C02A8
:1000A0000C944C020C944C020C944C0229001E003F
:1000B0001F002000210022002D002B0014001A0038
:1000C0000800150017002F00E000040016000700CC
:1000D00009000A003100E1001D001B0006001900A4
:1000E0000500F4000151E300E2004C0503512C002F
:1000F0002C022A00270026002500240023002E00C1
:100100003500130012000C0018001C0030003400F1
:1001100033000F000E000D000B003800E500520008
:100120003700360010001100F5004F00510050005C
:10013000E60002512800390001003A003B003C0073
:100140003D003E00440001000100010001000100EB
:100150000100010001000100010001000100010097
:100160000100010001000100010001000100010087
:1001700001000100010001000100010001004C002C
:1001800043004200410040003F00450001000100E3
:1001900001004600010001000100010001004B00C8
:1001A0004A00010001000100010001004E004D0065
:1001B0000100010001000100010001000100010037
:1001C0000100010001000000000000004D000000DF
:1001D000000001000000ED00000000000000000031
:1001E0000100EF00EE00F000000000000000010040
:1001F00000002A00000000000000010001000100D2
:1002000001000100010001000100000000000000E9
:10021000000000004A000000000019010000F20088
:10022000F10006010000000000004F0052005100E4
:10023000500000000000000000000000000000006E
:1002400001000000000000000100010001000100A9
:10025000010000000000000000000000000001009C
:10026000000000000000000000000000010000008D
:10027000000000000000000000000100000000007D
:100280000000000000000100010001000100010069
:100290000100010001002A005700610060005F00BA
:1002A00053000000000056005E005D005C0000008E
:1002B0000000000055005B005A00590000000000DB
:1002C00000005400580063006200000001000000BC
:1002D00000000000010001000100010012034500C0
:1002E000720067006F004400610073006800000046
:1002F0000C034F006D006B006200640000000403FB
:10030000090409023B00020100A0FA0904000001EF
:1003100003010100092111010001224000070581AC
:100320000308000A0904010001030000000921116B
:10033000010001227B000705820320000A12010050
:100340000200000008EDFE606000010102000105EE
:10035000010902A10185020901A10005091901296C
:10036000081500250195087501810205010930096C
:10037000311581257F95027508810609381581257B
:100380007F950175088106050C0A38021581257FC5
:10039000950175088106C0C005010980A10185038A
:1003A00019012AB700150126B700950175108100C3
:1003B000C0050C0901A101850419012AA00215013B
:1003C00026A002950175108100C005010906A10152
:1003D000050719E029E71500250195087501810237
:1003E0009501750881010507190029FF150026FFF1
:1003F0000095067508810005081901290595057500
:10040000019102950175039101C011241FBECFEF28
:10041000DAE0DEBFCDBF04B603FE27C08091DA026A
:100420009091DB02A091DC02B091DD028730904B0D
:10043000A740B04BD1F41092DA021092DB02109276
:10044000DC021092DD0214BE84B7877F84BF0FB632
:10045000F894A89580916000886180936000109264
:1004600060000FBEE0E0F8E3099511E0A0E0B1E024
:10047000E0ECFBE402C005900D92A63CB107D9F771
:1004800022E0A6ECB1E001C01D92AA3DB207E1F75F
:100490000E943C160C94B6250C9400000C943F125C
:1004A000089581E0089581E008950C945302089521
:1004B0000C9457021F93CF93DF9300D000D00F927C
:1004C000CDB7DEB749835A836B833091C8018981E8
:1004D0009A8131111DC06623B9F02223A9F00E9430
:1004E000C108182F682F89819A810E946D0869813F
:1004F0007A81812F0F900F900F900F900F90DF91C6
:10050000CF911F910C94CA0F0E949908182FEFCF1A
:100510000E94C10869817A81EDCFFC01262F4081BC
:1005200051816281738184810C945A0281E0089523
:10053000CF93DF93EC0160E00E948D02BE01DF915A
:10054000CF910C9458020E941B120E942A030C9413
:100550004E020C944112089508950C94AC020E942E
:10056000AD0280E00C942B030E9416070E945002FB
:100570002FEF84E39CE0215080409040E1F700C0E1
:1005800000000C947A1E0F931F93CF93DF938C017E
:1005900061E00E948D02EC01B8010E94550288239F
:1005A000D9F1B801CE010E948F198823A9F1B801B1
:1005B000CE010E945C1A882379F1B801CE010E9415
:1005C0002018882349F1B801CE010E944A198823D6
:1005D00019F1F8018281882361F0CB35FDE5DF0751
:1005E00021F170F4C115ECE5DE07A1F0CF3DDC454B
:1005F000C9F0C801DF91CF911F910F910C94510266
:10060000CC358DE5D807A1F0CD35DD4591F70E94B9
:10061000310EEFCF0E94B40280E0DF91CF911F91A5
:100620000F9108950E94E50EF7CF0E943A0EE1CF98
:100630000E943D0EDECF0C94AB020E94D81C0E949B
:100640002B030C941B0308950C94230381E008955D
:100650000C9426030895CF93C82F0E9424038C2F57
:10066000CF910C942803CF93DF93CDB7DEB72B97B0
:100670000FB6F894DEBF0FBECDBF4F835887698792
:100680007A878B8761110E947F0D1E821D8285E013
:10069000FE013796DE01119601900D928A95E1F7E1
:1006A0008C819D81892B89F449815A816B817C8160
:1006B0008D819E810E94A00C2B960FB6F894DEBF10
:1006C0000FBECDBFDF91CF91089589819A81892393
:1006D0008F3F51F3CE0101960E9496028111E4CF23
:1006E000EBCFFC01808191810C940309CF93C82F3B
:1006F000882309F48BC08238C1F40E94D81C81FD84
:1007000085C089E30E943A0D0E94AF0D2FEF81EE64
:1007100094E0215080409040E1F700C0000089E360
:100720000E94410DCF910C94AF0D8338A1F40E942B
:10073000D81C80FD6BC083E50E943A0D0E94AF0D6E
:100740002FEF81EE94E0215080409040E1F700C00F
:10075000000083E5E5CF8438A1F40E94D81C82FD17
:1007600055C087E40E943A0D0E94AF0D2FEF81EE35
:1007700094E0215080409040E1F700C0000087E401
:10078000CFCF8CEF8C0F813A90F46C2F80910201C7
:10079000909103010E94421D882329F08C2F0E9412
:1007A000410D0E94AF0D8C2F0E943A0DBBCF80E20D
:1007B0008C0F883048F4C77081E001C0880FCA955B
:1007C000EAF70E94620DAECFEBE5EC0FE33040F4A8
:1007D000F0E0E158FE4F808190E0CF910C94041D31
:1007E000E8E5EC0FE73150F4F0E0EE0FFF1FEF5AB1
:1007F000FE4F80819181CF910C941A1DCD3E30F037
:100800008C2F0E94C016CF910C946B17CF91089536
:10081000882309F452C0823871F40E94D81C81FFE9
:100820004CC089E30E943A0D0E94AF0D89E30E94FB
:10083000410D0C94AF0D833859F40E94D81C80FFF1
:100840003CC083E50E943A0D0E94AF0D83E5EFCFD7
:10085000843859F40E94D81C82FF2FC087E40E947C
:100860003A0D0E94AF0D87E4E2CF9CEF980F913ACA
:10087000F0F290E2980F983050F4877091E001C048
:10088000990F8A95EAF7892F0E94680DD2CF9BE5D0
:10089000980F933020F490E080E00C94041D98E5CC
:1008A000980F973120F490E080E00C941A1D8D3E53
:1008B00020F00E9415170C946B1708951F93CF9387
:1008C000DF93182FEB010E947603209731F4812FDC
:1008D000DF91CF911F910C9408048FE99FE001975D
:1008E000F1F700C000002197F0CF70E060E089339D
:1008F00011F460E570E00C945E04882321F00E94FE
:10090000620D0C94AF0D0895882321F00E94680DAC
:100910000C94AF0D0895BF92CF92DF92EF92FF92A9
:100920000F931F93CF93DF936C01D62FC72FFC013A
:100930001281F580F2949FE0F9220E94580DE82E72
:100940008823B9F0E12E1123A1F08C2F807F803411
:1009500021F080E28D0F8830B0F08091B10282FDED
:1009600012C082E00E94000E0E94580D91E0E82E15
:10097000E926BC2EB2948FE0B822EB2DF0E0E854CB
:10098000FA4D0C945825E12CF4CF0C2F0F70C07F3A
:1009900011F00295007F112399F0002359F080E2B5
:1009A0008D0F883010F0D11107C0802F0E94620D8A
:1009B0000E94AF0D8D2F41C0802F0E94720DF8CF85
:1009C0008D2F0E940804002309F43FC080E28D0FA0
:1009D000883010F0D11104C0802F0E94680D03C030
:1009E000802F0E94780D0E94AF0D2FC00C2F0F702A
:1009F000C07FC03211F00295007FDD2381F0D1303D
:100A000009F469C0112309F473C0FF2009F469C017
:100A1000F601858180FFCECF8F70858362C0809183
:100A2000B10282FF38C0112359F0002329F0802F32
:100A30000E94620D0E94AF0D80E00E94760305C007
:100A400080E00E9408040111C7CFEB2DE850FF0B96
:100A5000349720F40E94D81C0E942B03EE2009F446
:100A600082C10E94540D80FD7EC1F60112820E9457
:100A70004E0D0E94D107C6010E94D4060E944E0D61
:100A8000DF91CF911F910F91FF90EF90DF90CF906A
:100A9000BF900C94F207112389F0F11006C00E9458
:100AA000920D802B0E947D04D0CFF1E0FF12F7CF92
:100AB0000E94920D802B0E94980DC7CFF11006C0A6
:100AC0000E94A50D802F0E948404BFCF21E0F21662
:100AD00009F4BBCFF5CF112331F035E03F1508F411
:100AE000B4CF802FDFCF84E08F1508F4AECFEACFEC
:100AF000FF2041F3D93349F4FFEF27EE33E0F15003
:100B000020403040E1F700C000008D2F0E94080413
:100B10009CCF8C2F86958695837069F0813009F083
:100B200094CF8D2F9C2F9370111102C090E080E024
:100B30000E941A1D8ACF8D2F9C2F9370111102C015
:100B400090E080E00E94041D80CF8D2F112329F0BA
:100B50000E94C0160E946B1778CF0E941517FACF1B
:100B60008C2F837009F041C011116FCF4D2F42952A
:100B700046954770440F440F0D2F0F7010E030E082
:100B800020E0042E04C0000F111F221F331F0A94FF
:100B9000D2F760E070E0CB01D4FF0FC06FE070E0EF
:100BA00080E090E004C0660F771F881F991F4A9568
:100BB000D2F76095709580959095C695C695C3704F
:100BC000602B712B822B932BC23049F058F4C1302B
:100BD00019F00E94830739CF0E94710736CF0E9417
:100BE000950733CF0E946F0730CF8695112311F000
:100BF0008C2F8170882309F428CF4D2F429546957C
:100C00004770440F440F0D2F0F7010E030E020E0CC
:100C1000042E04C0000F111F221F331F0A94D2F7A5
:100C200060E070E0CB01D4FF0FC06FE070E080E0C7
:100C300090E004C0660F771F881F991F4A95D2F76E
:100C40006095709580959095C695C695C370602BFC
:100C5000712B822B932BC23049F058F4C13019F01C
:100C60000E944808F2CE0E943608EFCE0E945A0831
:100C7000ECCE0E94AB07E9CECF70112329F08C2F68
:100C80000E94D1078D2F0ECF8D2F0E9484048C2FB0
:100C90000E94F207DACED23F51F160F4D03FB9F0B2
:100CA000D13F81F0112309F449C0F11083CE8C2F7C
:100CB0008F7121C0D33F11F1D43FA1F78091B102D0
:100CC00082FF26C08C2F8F71112311F314C01123C2
:100CD00049F084E08F1508F4B8CE8C2F8F710E94F4
:100CE0001508B3CE95E09F1508F4AFCEF6CF8C2F44
:100CF0008F711111CDCF0E94D107A7CE112329F0FA
:100D00008C2F8F710E94BC07A0CE0E94B7079DCE8A
:100D1000112349F0CF718C2F0E94D10763E08C2FF3
:100D20000E94E50D92CE81E00E94000EE1E0EF15F9
:100D300008F08BCE82E00E94000E87CEF110DACE52
:100D40008C2F8F71A5CF4C2F4F706D2FC6010E9435
:100D5000C60F0E94310979CE4C2F4F706D2FC601FE
:100D60000E94C90F72CEDF91CF911F910F91FF901A
:100D7000EF90DF90CF90BF9008950F931F93CF9384
:100D8000DF93EC01688179818A810E940D098C01D1
:100D90000E946C080E946E07B801CE01DF91CF91CE
:100DA0001F910F910C948B04CF93DF93EC018B81F7
:100DB0009C81892B29F08881998189238F3F59F45F
:100DC000DF91CF910895CE010E94BD06CE01DF9143
:100DD000CF910C949802CE010E94C3028111F3CFEF
:100DE0000E94580D882361F38A81882349F38091FA
:100DF000B10282FDE5CF82E0DF91CF910C94000E2D
:100E000090E080E00E94041D90E080E00E941A1DA6
:100E10000E947F0D0E948F0D0E94AF0D0E9400184E
:100E20000C946B170E94480D0C9400070E946F0DE4
:100E30000C941207E92FE295EF70E250EE3070F457
:100E4000F0E0E853FA4D0C945825803F19F020F457
:100E5000883E20F481E00895843FE1F380E0089526
:100E6000883EC0F3813FD1F7F5CF93FB882780F907
:100E70000895FC01808191810E9403090C941A0756
:100E8000CF93DF9300D000D00F92CDB7DEB70F9095
:100E90000F900F900F900F90DF91CF910895CF9307
:100EA000DF9300D000D000D0CDB7DEB726960FB6C6
:100EB000F894DEBF0FBECDBFDF91CF9108950895A6
:100EC0000C945F070E9460076093FA017093FB0126
:100ED0008093FC019093FD010C94000708950C94FD
:100EE00062070F931F930091FA011091FB0120916B
:100EF000FC013091FD01602B712B822B932B1F91F4
:100F00000F910C9462070F931F930091FA011091B7
:100F1000FB012091FC013091FD01602371238223AC
:100F200093231F910F910C9462070F931F930091CD
:100F3000FA011091FB012091FC013091FD01602725
:100F40007127822793271F910F910C9462070C94AD
:100F50005F070C94A7070E94A9076093F60170939E
:100F6000F7018093F8019093F9010C94000760E079
:100F700070E0CB010C94AB070F931F9341E050E05E
:100F800060E070E08A019B0104C0000F111F221F66
:100F9000331F8A95D2F7C901B8011F910F910C94A4
:100FA000AB070F931F9341E050E060E070E004C096
:100FB000440F551F661F771F8A95D2F78091F6015F
:100FC0009091F701A091F801B091F9018A019B017C
:100FD000082B192B2A2B3B2BC901B8011F910F910C
:100FE0000C94AB070F931F9341E050E060E070E07A
:100FF00004C0440F551F661F771F8A95D2F7CB0197
:10100000BA0160957095809590950091F6011091C8
:10101000F7012091F8013091F901602371238223B7
:1010200093231F910F910C94AB070F931F9341E0F3
:1010300050E060E070E004C0440F551F661F771F4A
:101040008A95D2F78091F6019091F701A091F8016D
:10105000B091F9018A019B01082719272A273B270C
:10106000C901B8011F910F910C94AB070F931F9307
:101070000091F6011091F7012091F8013091F901EA
:10108000602B712B822B932B1F910F910C94AB072C
:101090000F931F930091F6011091F7012091F80131
:1010A0003091F90160237123822393231F910F91C3
:1010B0000C94AB070F931F930091F6011091F70169
:1010C0002091F8013091F901602771278227932739
:1010D0001F910F910C94AB07089527E0929F800D0C
:1010E0001124982F977041E001C0440F9A95EAF7B8
:1010F00086958695869595E0899FF0011124E753A2
:10110000FE4F90E080E070E05191DF0111979B016C
:10111000082E02C0369527950A94E2F72170219592
:101120002527242325272C9301968530910561F7E7
:10113000089527E0929F800D1124982F977086952F
:101140008695869525E0829FF0011124E753FE4F96
:1011500050E040E080E0219130E0092E02C0369559
:1011600027950A94E2F721703327042E01C0220F3D
:101170000A94EAF7822B4F5F5F4F4530510559F7CC
:101180000895BF92CF92DF92EF92FF920F931F9339
:10119000CF93DF938C01C090F601D090F701E090DF
:1011A000F801F090F9018091FA019091FB01A09172
:1011B000FC01B091FD01C82AD92AEA2AFB2ACFE115
:1011C000D0E0BC2ED701C6010C2E04C0B695A79561
:1011D000979587950A94D2F780FD0EC0219788F7DE
:1011E000B12C8B2DDF91CF911F910F91FF90EF903C
:1011F000DF90CF90BF900895B8018C2F0E94F91016
:10120000019761F3EECFCF93DF93EC010E94C10809
:10121000BE01DF91CF910C94F9101F93CF93DF9310
:10122000EB019091C801992331F0CB01DF91CF916F
:101230001F910C940309882379F0CB010E94C10807
:10124000182F682FCE010E946D08BE01812FDF91FB
:10125000CF911F910C94F910CB010E949908182F7F
:10126000F4CFEF92FF920F931F93CF93DF938C01F4
:10127000892B81F0F12CEE24E394E8012196F8010A
:101280008491843770F4843008F05FC08130B1F00D
:101290008230A1F1DF91CF911F910F91FF90EF90DC
:1012A0000895853709F44CC008F43DC09CE7980FB9
:1012B000903780F78F770E94080449C00E5F1F4F58
:1012C000FE01849190E2980F983060F48770FE2DB3
:1012D00001C0FF0F8A95EAF78F2F0E94820D0E94AE
:1012E000AF0D02C00E9476038F2D815030F2EFE9DE
:1012F000FFE03197F1F700C00000F7CF0E5F1F4FFE
:10130000FE01849190E2980F983050F48770FE2D82
:1013100001C0FF0F8A95EAF78F2F0E94880DDFCF5B
:101320000E940804E1CF0E5F1F4FFE01C491C1501F
:10133000D8F28FE99FE00197F1F700C00000F7CFE6
:101340000E5F1F4FFE01F490CFCF0E9476038E01F7
:10135000CBCF1F93CF93DF93C091FE0116E0809116
:10136000FF018C1304C0DF91CF911F910895D0E04D
:101370001C9FF0011D9FF00D1124E050FE4F408195
:10138000518162817381848195810E944F072196EA
:10139000C770E5CF40913002509131026091320226
:1013A0007091330280913402909135020C944F0772
:1013B0002091FE019091FF0156E0291302C080E0C8
:1013C000089530E0529FF001539FF00D1124E0503A
:1013D000FE4F7181761306C07081781303C072814D
:1013E000741304C02F5F3F4F2770E7CF81E008954B
:1013F00080910001909101010895DF92EF92FF9298
:101400000F931F93CF93DF9380913502807F61F418
:1014100080913202882341F0C091FE0186E0D82EEF
:101420008091FF018C1308C0DF91CF911F910F9124
:10143000FF90EF90DF9008952091330230913402B5
:10144000D0E02115310541F08091300290913102B8
:10145000482F49234F3F19F42196C770E1CFDC9EF6
:101460008001DD9E100D1124F801E050FE4F4181F6
:101470004913F2CF90819813EFCF82818111ECCF85
:10148000E380F480E21AF30A60E080E392E00E94D5
:101490008D0260E372E00E94F809E816F906E0F6B2
:1014A000809135028F70806180933502F801EB5F87
:1014B000FD4F80818F708061808380E392E00E9485
:1014C000D406DF91CF911F910F91FF90EF90DF90A5
:1014D0000C94A9094F925F926F927F928F929F9284
:1014E000AF92BF92CF92DF92EF92FF920F931F9332
:1014F000CF93DF93CDB7DEB761970FB6F894DEBF19
:101500000FBECDBF8C0185E0F801DE011D96019074
:101510000D928A95E1F7D8014C9011965C90119745
:1015200012967C9012971396ED90FC9060E080E309
:1015300092E00E948D024C0180E3A82E82E0B82E3A
:1015400020913302309134022115310541F0809110
:1015500030029091310289238F3F09F09EC17110B2
:10156000FAC0C8010E94D40672C0EF2829F0852D68
:1015700084218F3F09F005C180E0B82FB170EB2EB8
:1015800080FF29C0472D652D842D0E94D809F82E93
:10159000811121C04D865E868D859E850E9403093E
:1015A000292F22952F70223050F0243078F49F702C
:1015B00051F0F8019581907F31F46F2C03C19F7039
:1015C00011F08823D1F3805E8830B8F3C8010E94FF
:1015D000D406FE2CF2CF772009F4F4C080913502B6
:1015E000816080933502612CEDC0892B49F0809198
:1015F000300290913102282F29232F3F09F0FAC0A1
:10160000C8010E943907882309F4ABCF772009F479
:10161000A8CF80913502803270F020913002309155
:10162000310238872F831986FB86EA868C87CE01A4
:1016300007960E94D40686E0F801A0E3B2E001908C
:101640000D928A95E1F70E94FD090E94CA0966245D
:101650006394B8C0211112C07E2DF98AE88AA201D4
:10166000672D89890E94400780E392E00E94D4069A
:1016700086E0F50111928A95E9F75FC18091330206
:1016800090913402892B49F080913002909131027F
:10169000282F29232F3F09F0CAC0C8010E9439070B
:1016A000882309F45ECF772009F45BCF809135025F
:1016B000803208F220913002309131023A8329833E
:1016C0001B82FD82EC828E83CE010196B2CF60E058
:1016D00080E392E00E948D0260E372E00E94F809CC
:1016E000C816D90650F5672C772009F43ACF8091B7
:1016F000330290913402892B49F08091300290910D
:101700003102282F29232F3F09F0AAC0C8010E94C7
:101710003907811190CF8091350281608093350225
:10172000C8010E94D4064EC086E0F801A0E3B2E0F2
:1017300001900D928A95E1F745C07E2DF98AE88ADD
:10174000A201672D89890E94400786E0D5011D927C
:101750008A95E9F769C0C8010E943907682E882375
:1017600009F4FFCE86E0F801A0E3B2E001900D920B
:101770008A95E1F780E392E00E9471030E94FD09DF
:1017800053C081E08725F9CE81E08725C1C0F801EB
:1017900021812913ACC0F80190819813A8C0711061
:1017A000A6C0809135028F708061809335020E94BF
:1017B000CA0980E392E00E94D40680913502D801E4
:1017C00015968C93862D61960FB6F894DEBF0FBEEA
:1017D000CDBFDF91CF911F910F91FF90EF90DF90E0
:1017E000CF90BF90AF909F908F907F906F905F90C1
:1017F0004F900895D80111962C91291301CFD8014B
:101800009C919813FDCE7110FBCE809135021596F8
:101810008C93C8010E94D40686E0F801A0E3B2E0F0
:1018200001900D928A95E1F70E94CA09CBCFF80189
:101830002181291332CFD8019C9198132ECF71109A
:101840002CCF8091350215968C93C8010E94D40646
:10185000E0E3F2E086E0DF011D928A95E9F7B2CF7E
:10186000D80111962C91291351CFF801908198132A
:101870004DCF9091350290FD57CF907F09F454CF12
:10188000809135028583903F09F4C3CF982F907FD4
:10189000905F8F70892B8583BCCF60903202670187
:1018A000C21AD30A662009F412CF60E080E392E006
:1018B0000E948D0260E372E00E94F80920913502D7
:1018C000207FC816D90608F0C5CE809133029091CA
:1018D000340221118ACE672C892B49F08091300285
:1018E00090913102282F29232F3F09F050CFB801C2
:1018F000C4010E94F809843F914008F436CEE114F7
:10190000F10429F0852D84218F3F09F03DCF80E03F
:1019100080FF2BCE472D652D842D0E94D80988236A
:1019200009F423CE80E392E00E94D40686E0E0E34F
:10193000F2E0DF011D928A95E9F70E94CA0953CEB1
:101940001F93CF93DF93CDB7DEB72C970FB6F894E4
:10195000DEBF0FBECDBF4F83588769877A878B87DD
:101960009C87CE0107960E946A0A882369F08A85BF
:101970009B85892B39F04F815885842F85238F3F94
:1019800009F071C016E05FC086E0FE013796DE0107
:10199000119601900D928A95E1F78A859B85892B96
:1019A00089F38F81988589238F3F61F32091FF010F
:1019B00030E0C9010196877099274091FE014817D0
:1019C000190671F40E9416071092FF011092FE0191
:1019D00086E0E0E3F2E0DF011D928A95E9F7D2CFDD
:1019E00096E0929FD001939FB00D1124A050BE4F5E
:1019F000FE01319601900D929A95E1F78093FF01D7
:101A00000E94A909BFCF819FC001112480509E4F21
:101A10000E946A0A8823E9F0E091FE011E9FF0010E
:101A20001124E050FE4F4081518162817381848195
:101A300095810E944F078091FE0190E0019687708A
:101A400099278093FE018091FE019091FF018913F7
:101A5000DACF2C960FB6F894DEBF0FBECDBFDF9164
:101A6000CF911F91089569857A858B859C850E9409
:101A70004F0788CF682F80910201909103010C9449
:101A8000781D682F80910201909103010C947A1DBA
:101A900080910201909103010C947C1D809136028B
:101AA000859585958595089580913602877008956E
:101AB00090913602977081E009F480E0089580915A
:101AC0004202089590914202892B80934202089528
:101AD000809590914202982390934202089510922B
:101AE0004202089590914102892B8093410208950A
:101AF000809590914102982390934102089510920D
:101B00004102089590914002892B809340020895EC
:101B100080959091400298239093400208951092EE
:101B20004002089580913702089508950C94950D10
:101B30009091B10292FD08C090913702981721F060
:101B4000809337020C94960D089580913702882374
:101B500029F01092370280E00C94960D0895E091E0
:101B60000201F0910301809142028083E091020121
:101B7000F0910301808190914102892B8083E09153
:101B80000201F0910301808190914002892B8083B2
:101B900090913702992381F0E0910201F0910301C5
:101BA0008081892B808380910201909103010E94A2
:101BB000301D81110E94A50D8091020190910301B9
:101BC0000C94EB1C08950C94E20D9091B10292FDDF
:101BD00010C098E0899F90011124622B6093360217
:101BE0000E94D107809136028595859585950C9444
:101BF000E30D0C94D1071092360280E00C94E30DB3
:101C0000909136028095892380933602282F277081
:101C100091F4282F082E000C330B9217130659F05D
:101C20009091B10292FD07C08595859585950E949A
:101C3000F2070C94FB0D08959091B10292FB2227BC
:101C400020F9281769F080FB92F99093B1028091F6
:101C5000B0029091B1020E94610E82E00C94000EDD
:101C600008958091B10282FB882780F991E089274D
:101C70000C941C0E81E00C941C0E80E00C941C0E45
:101C800090E080E00E947C2521E0893E9E4F09F093
:101C900020E0822F089582E090E00C94742583E088
:101CA00090E00C947425CF9384E090E00E9474251A
:101CB000C82F82E290E00E947425982F8C2FCF913C
:101CC0000895CF93C92F682F84E090E00E94822569
:101CD0006C2F82E290E0CF910C948225AB01BC0185
:101CE0008FE090E00C949425AB01BC0183E190E07F
:101CF0000C94942560E070E0CB010C94740E60E0CD
:101D000070E0CB010E946E0E0C947A0E69EE7EEFAD
:101D100090E080E00E94A02560E082E090E00E94D8
:101D2000822560E083E090E00E9482251092FA0113
:101D30001092FB011092FC011092FD0160E084E022
:101D400090E00E94822560E082E290E00E9482257D
:101D500060E085E090E00E94822560E086E090E00F
:101D60000E9482256FEF87E090E00E94822540E08C
:101D700050E0BA0188E090E00E94942560E08DE098
:101D800090E00E94822540E050E0BA0188E190E0B6
:101D90000E94942560E087E190E00E94822540E067
:101DA00050E0BA018CE190E00E94942570E060E080
:101DB00080E290E00E94A02540E050E0BA0188E176
:101DC00090E00E9494250C947F0E0C94860E682F50
:101DD0008EE090E00C9482250E941F1E60935202B8
:101DE00070935302809354029093550260934E0275
:101DF00070934F028093500290935102089585B7DB
:101E0000806885BF85B7806885BF08950895089567
:101E10000C94060F08950C940A0F0E94FF0E88E19F
:101E200092E10E94CE1C0E94070F0C94080F0C94A4
:101E30000414089508950E94190F0C941A0F0E941B
:101E40000A1E0E94D7110E94EC120E9408180C94DE
:101E50000B0FAF92BF92CF92DF92EF92FF920F9350
:101E60001F93CF93DF93CDB7DEB72A970FB6F894C1
:101E7000DEBF0FBECDBF0E947A1381110E94EC0E0F
:101E800084E4A82E82E0B82E10E000E0C02E802F5F
:101E90000E944312E82EF501F1905F01F81609F453
:101EA0004DC08091560281FD0E9449128F2D8E25D2
:101EB000D12CFF24F394982F9F21D9F10E94170F62
:101EC000882399F0DE82CF82EF2081E009F480E060
:101ED00088870E94131E8160782F9A8789874E8198
:101EE0005F8168858A850E943303F801EC5BFD4FB2
:101EF0008081F826F0820E9486170E94D81C90915B
:101F00004302891791F10E94D81C809343022A96BC
:101F10000FB6F894DEBF0FBECDBFDF91CF911F91FA
:101F20000F91FF90EF90DF90CF90BF90AF900C9407
:101F30002B03D394FF0CF7E0DF12BDCF0F5F1F4FD1
:101F40000A30110509F0A2CF8FEF89838A831B82A3
:101F50000E94131E8160782F9D838C8349815A8152
:101F60006B818D810E943303C6CF2A960FB6F894F9
:101F7000DEBF0FBECDBFDF91CF911F910F91FF90BC
:101F8000EF90DF90CF90BF90AF90089590E080E009
:101F900008950895972F70E027E0929F600D711DBE
:101FA0001124FB0196E4899FE00DF11D1124EE0F31
:101FB000FF1FE455FF4F859194910895FC01EE0FAA
:101FC000FF1FE452FD4F859194910895CF93DF93C5
:101FD0000E94FD10EC01811520E5920708F042C037
:101FE000811530E4930708F0BDC0883E910528F5BF
:101FF000803E910508F09DC0883A910588F4853AA5
:10200000910508F08FC08130910509F492C00097C6
:1020100009F48FC0049708F08CC0D0E0C0E089C0FC
:102020008F3B910508F489C0805C9109C03CD105C3
:10203000A0F30E94DE0FEC017CC08115904250F4A9
:10204000C11581E0D80708F074C0CD3ED10528F352
:10205000D0656FC0C11590E3D90708F079C0CE01F3
:102060009F70E7CF811525E5920758F5811534E576
:10207000930708F0A6C0811542E5940750F4C115F6
:1020800081E5D80708F471C0DC2FCC27C16FD06A76
:1020900050C0982F969596959E0123703327C115B1
:1020A000D34508F07FC0C1E0D0E002C0CC0FDD1FF7
:1020B0002A95E2F720E2929FC0011124C82BD92B68
:1020C0006FC0C11589E5D807A8F4C11598E5D907EF
:1020D00008F07CC0C11526E5D20708F09ECF8C2FF2
:1020E0000E949411C82FD0E0DC2FCC27CC27DF71C1
:1020F000D0621FC0C1153AE5D30708F46CC0CE0109
:1021000090568115904208F088CF8D2F8F710E94D4
:10211000941190E0982F882788279F719C012C2B81
:10212000E901E6CFC55AD0E0C055DE4FC881D0E006
:10213000D064CE01DF91CF910895C85AD0E0CC0F82
:10214000DD1FCE57DE4F0990D881C02DD464F1CF6A
:10215000CE019927D3FF03C0EC01D86CEACFEC0184
:10216000D06CE7CFDF70D06AE4CFCE01E4E0969583
:102170008795EA95E1F783702C2F26952695237095
:1021800090E2299F90011124382B8C2F8370C1E09D
:10219000D0E002C0CC0FDD1F8A95E2F7C22BD32B13
:1021A000DC68C7CFC1E0D0E002C0CC0FDD1F2A95AC
:1021B000E2F730E2939FC0011124C82BD92BDA68D3
:1021C000B8CFD82FCC27C46FD06AB3CFDC2FCC27A1
:1021D000C06FD06AAECF8C2F8F700E94941134E004
:1021E000D695C7953A95E1F7CF709C2FEC01D06951
:1021F000A0CF0E94CA0F0C94E60F82389105B1F16E
:10220000B0F48133910509F475C048F48932910521
:1022100009F469C08A32910509F473C008958533C1
:10222000910509F459C08933910501F10895833E60
:102230009105A9F138F4803E9105F9F0823E9105AF
:1022400049F10895863E9105A9F1873E9105C9F1AE
:10225000843E910519F52091B10221FF1FC08091A4
:10226000B00284FD14C087EE90E008952091B00282
:102270002370A1F080EE90E008952091B00220FD3F
:1022800047C03091B10230FF09C024FF44C090E044
:1022900080E004C02091B00222FDF7CF0895209184
:1022A000B00222FD3BC03091B10230FDE3CF24FFEC
:1022B000F5CFEDCF2091B00223FFF0CF24FDE7CF83
:1022C000D2CF2091B00223FD2CC03091B10231FF5A
:1022D000EECF84EE90E008952091B00225FFDECF8E
:1022E00089E290E008952091B00225FFD7CF85E3E1
:1022F00090E008952091B00226FFD0CF8AE290E0CE
:1023000008952091B00226FFC9CF81E390E008959F
:1023100089E390E0089583EE90E0089582EE90E0E6
:10232000089586EE90E008959091B00292FF06C065
:10233000282F28712830F9F4877F846093FF06C026
:10234000282F28712831F1F4877E84612091B10211
:1023500020FF06C0382F38713830D9F4877F81606C
:1023600021FF06C0282F28712831D1F4877E816192
:1023700094FD877E0895282F24712430F9F68B7FF1
:102380008860DCCF282F2471243101F78B7E88618F
:10239000DDCF382F3171313019F78E7F8860E0CF73
:1023A000282F2171213121F78E7E8861E1CF109293
:1023B000AC021092AD021092AE021092AF020895DC
:1023C000CF92DF92EF92FF926B017C010E94041486
:1023D00081110EC00E941F1EC61AD70AE80AF90A08
:1023E000C092AC02D092AD02E092AE02F092AF0287
:1023F000FF90EF90DF90CF9008950F931F930E946E
:102400000414882321F01F910F910C941F1E0E9429
:102410001F1E0091AC021091AD022091AE023091CE
:10242000AF02600F711F821F931F1F910F910895BC
:1024300080E0089508950E94400E811102C00E941C
:10244000E50E0E944B0E809356020E94530E90930D
:10245000B1028093B0020E941A120E944F0E682FA0
:1024600070E090E080E00E946F076091F60170914B
:10247000F7018091F8019091F9010C94A907089552
:1024800008950C944012E82FF0E0E454FD4F808151
:102490000895089580EA8A95F1F7089500C0089597
:1024A0000C944A12F894E82FE295EF70F0E031A115
:1024B000282F2F7081E090E001C0880F2A95EAF75D
:1024C000982F9095932391A392A1892B82A378941E
:1024D000089508950C946912CF93DF93CAEBD1E06D
:1024E00089918F3F11F00E94521281E0CF3BD807B3
:1024F000B9F7C3EBD1E089918F3F11F00E945212DE
:1025000081E0CA3BD807B9F7DF91CF910895CF9208
:10251000DF92EF92FF920F931F93CF93DF93EC0123
:10252000D62E062F10E0C80186549E4F7C01FC0178
:1025300080818F3F09F445C0F894E82FE295EF7051
:10254000F0E091A18F7021E030E001C0220F8A9568
:10255000EAF7892F822B81A382A12095282322A329
:1025600078940E944E12E3EBF1E04AEB51E031E047
:10257000C12C21912F3F71F1A22FA295AF70B0E035
:1025800090968C9190E02F7002C0959587952A9532
:10259000E2F780FD1FC0832FC82A330F4E175F0755
:1025A00041F7F70180818F3F11F00E94521261E0E4
:1025B000C11001C060E08D2D0E945012C00FD11FCC
:1025C000C882DF91CF911F910F91FF90EF90DF9024
:1025D000CF90089580E0E0CF0E941E148091040106
:1025E0008091040195E0811190E09093C70285E00D
:1025F000891B8093C6020E946C128AE0ECEBF2E029
:10260000DF01982F1D929A95E9F7E2EBF2E0DF01E6
:102610001D928A95E9F785E00E94CD130E94A302DE
:102620000C942814EF92FF920F931F93CF93DF9394
:1026300000D000D00F92CDB7DEB70E940414F82E60
:102640006091C702882309F448C085E0E82E8E0116
:102650000F5F1F4FF8018E2D11928A95E9F7862F93
:1026600090E0B80184549D4F0E9436148823F9F0FD
:102670008091C60290E045E050E0B80184549D4F3F
:102680000E945E2521E020935702892BD1F4F12C82
:102690000E94A9028F2D0F900F900F900F900F9016
:1026A000DF91CF911F910F91FF90EF90089580914E
:1026B0005702882361F3F8011192EA94E9F7109226
:1026C0005702A091C602B0E0A454BD4F85E0F801C6
:1026D00001900D928A95E1F7DBCF70E064547D4F55
:1026E0008091C60290E084549D4F0E94C3140E94C2
:1026F0006A12D0CFEF92FF920F931F93CF93DF9385
:10270000CDB7DEB72A970FB6F894DEBF0FBECDBFA8
:102710008E010F5F1F4F8AE0F80111928A95E9F749
:10272000F12C6F2DC8010E948712F394F5E0FF127F
:10273000F8CF4AE050E0B80182EB92E00E945E25BB
:102740007C0121E0892B09F420E0E114F10441F03F
:102750008AE0F801A2EBB2E001900D928A95E1F7D0
:102760006091C70270E064547D4F45E082EB92E0D7
:102770000E94CE1381E090E0EF2811F40E94121322
:102780002A960FB6F894DEBF0FBECDBFDF91CF9172
:102790001F910F91FF90EF9008950895FF920F936E
:1027A0001F93CF93DF93F82E092F162FD72FC42F07
:1027B000222349F081E080935A020E94131E9093D5
:1027C00059028093580280915A028823A1F0809187
:1027D0005802909159020E942B1E059760F0EF2D30
:1027E000F02FA12FBD2FCE0FDF2FD11DEC17FD072E
:1027F00041F410925A02DF91CF911F910F91FF90F7
:10280000089581918D93F2CF80915D02811107C06F
:102810000E944B25882351F081E080935D0281E086
:1028200090915D02913009F080E0089582E08093FC
:102830005D020E944625F3CF0C9404140E941C14E0
:10284000809304010E94041481110C946C14089567
:102850000E940414811102C00C946E14089581E04A
:1028600090915E029A3008F080E008950F931F93D4
:10287000CF93DF93EC018B0180915E028A30B8F434
:10288000B801CE010E94C114C82F811122C08091CD
:102890005E028F3FB9F40E94131E90935C028093F6
:1028A0005B028C2FDF91CF911F910F910895809142
:1028B0005B0290915C020E942B1E843F914000F7C6
:1028C000C0E0EFCF8F5F80935E028A3020F7C1E0D7
:1028D000E8CF10925E02E5CF0C940D1B0C94101BF8
:1028E000EF92FF920F931F93CF93DF937901C82F3D
:1028F000880FDD0B41155105A9F08AE08C9FF0018E
:102900008D9FF00D1124EB5FFE4F83819481815ADE
:102910009D4F228130E04217530708F49A01A90124
:102920000E946B25CE010E941A1C892B11F50115FE
:102930001105E9F08AE08C9FF0018D9FF00D1124C4
:10294000EB5FFE4F458150E00417150708F4A8011E
:102950008AE08C9FF0018D9FF00D1124EB5FFE4FFC
:1029600066817781615A7D4FC7010E946B2581E0A6
:1029700001C080E0DF91CF911F910F91FF90EF9008
:1029800008950C94DA150C94F6150F931F93CF93BA
:10299000DF9300D000D0CDB7DEB7609176027091A2
:1029A000770280917802909179020E943A1E11E09C
:1029B000643671058105910518F10E94FD116E5F65
:1029C0007F4F8F4F9F4F69837A838B839C8310E067
:1029D00000E030E020E044E050E0BE016F5F7F4F58
:1029E00082E00E947014182F882351F00E941F1E4D
:1029F00060937602709377028093780290937902C5
:102A0000812F0F900F900F900F90DF91CF911F911A
:102A10000F910895AF92BF92CF92DF92EF92FF9203
:102A20000F931F93CF93DF9300D000D000D0CDB78A
:102A3000DEB77B01C090C401D090C50101E010E079
:102A40009E012A5F3F4F50E040E070E060E080E090
:102A50000E947014182F882309F448C056018FEF84
:102A6000A81AB80A60917202709173028091740280
:102A7000909175020E943A1E643671058105910598
:102A800068F105E010E09E012F5F3F4F50E040E00D
:102A900070E060E081E00E947014D82E65E070E084
:102AA000C5010E94091811E09E81981310E01D21B4
:102AB00041F10E941F1E6093720270937302809313
:102AC00074029093750285E0FE013196ADE6B2E0A6
:102AD00001900D928A95E1F711E013C065E070E076
:102AE000C5010E9409189E818913CBCF85E0F601AC
:102AF0003196DE01119601900D928A95E1F7111140
:102B0000E2CF85E0EDE6F2E0D70101900D928A95E3
:102B1000E1F7812F26960FB6F894DEBF0FBECDBF2A
:102B2000DF91CF911F910F91FF90EF90DF90CF90A9
:102B3000BF90AF900895AF92BF92CF92DF92EF9285
:102B4000FF920F931F93CF93DF937C015B016A0188
:102B50000E942F1401E010E0882311F00AE010E039
:102B6000C1E0D0E0F894B501C701F6010995789469
:102B7000811104C021960C171D075CF4DF91CF91E1
:102B80001F910F91FF90EF90DF90CF90BF90AF908B
:102B90000895CC9F9001CD9F300D300D112490E011
:102BA00080E045E34A95F1F700000196821793070C
:102BB000C1F7D8CF0F931F93CF93DF93EC018B0115
:102BC0004AE055E10E949B15882351F045EC54E101
:102BD000B801CE01DF91CF911F910F910C949B15FD
:102BE00080E0DF91CF911F910F9108950F931F9374
:102BF000CF93DF93F894C091C401D091C501CE0169
:102C0000019625E0FB01DC0101900D922A95E1F788
:102C100065E070E00E94091888837894F8946E81CA
:102C20007F81888599850091690210916A022091BF
:102C30006B0230916C02601771078207930751F0A5
:102C40006093690270936A0280936B0290936C02A6
:102C50000E94E0117894DF91CF911F910F91089518
:102C60000E941A200E941F0F0C9426200E942A20E6
:102C70000E94290F0C9444200E949D1D0E94012057
:102C80000E940D0F0E9430160E9436160E941B0FE4
:102C9000FBCF8091430190E0880F991FFC01E55C18
:102CA000FE4F2081855D9E4FFC01808190918002C6
:102CB000191614F4209380029091800297FF04C0AB
:102CC000922F91959093800290918102191614F49D
:102CD000209381029091810297FF03C02195209358
:102CE000810290918302191614F4809383029091CB
:102CF000830297FF04C0982F91959093830290913F
:102D00008202191614F4809382029091820297FF36
:102D100003C0819580938202309180023323A1F019
:102D200020918102222381F045EB3403C00111245C
:102D30009923F1F09093800245EB24039001112434
:102D40003323D1F03093810240918302442379F000
:102D500030918202332359F025EB4203A001112464
:102D6000509383023203900111243093820208951C
:102D700081E080938002E0CF81E080938102E4CF04
:102D800040914301242F30E0220F331FF901E55C0D
:102D9000FE4F90818D3E21F491959093810208958C
:102DA0008E3ED9F38F3E21F4919590938002089541
:102DB000803FD9F3255D3E4FF9019081893F19F499
:102DC0009093820208958A3F11F49195F9CF8B3F39
:102DD00021F491959093830208958C3FD9F39FE05D
:102DE000980F983070F4815F990B21E030E001C0BA
:102DF000220F8A95EAF780917F02822B80937F02CF
:102E000008958D3F49F481E080934301809143010F
:102E1000481751F00C9449168E3F11F482E0F4CF1C
:102E20008F3F11F483E0F0CF08958D3E39F4809107
:102E3000810287FF29C01092810208958E3E29F4F5
:102E4000809181021816BCF308958F3E39F4809169
:102E5000800287FF19C0109280020895803F29F4F4
:102E6000809180021816BCF30895893F39F480914F
:102E7000820218164CF41092820208958A3F29F4B7
:102E80008091820287FDF7CF08958B3F39F48091BE
:102E9000830287FFF9CF1092830208958C3F29F4B3
:102EA000809183021816BCF308959FE0980F983024
:102EB00058F7815F990B21E030E0A90102C0440F6F
:102EC000551F8A95E2F7CA01809590917F02892368
:102ED00080937F02D9CF0E94131E9C0190918002A3
:102EE00080918102982B21F030937D0220937C0207
:102EF0009091820280918302982B21F030937B0283
:102F000020937A028EE792E00C94F61CEF92FF92E7
:102F10000F931F93CF93DF9300D000D000D0CDB795
:102F2000DEB786E0EEE7F2E0DE01119601900D9249
:102F30008A95E1F7E0908002F09081020091820290
:102F400010918302109280021092810210928202EC
:102F5000109283028E2D8F29B1F080917C02909186
:102F60007D020E942B1EE0914301F0E0EE0FFF1F57
:102F7000ED5CFE4F208131812817390720F4E09263
:102F80008002F0928102802F812BB1F080917A0231
:102F900090917B020E942B1EE0914301F0E0EE0F26
:102FA000FF1FED5DFE4F208131812817390720F486
:102FB000009382021093830280918002909181029B
:102FC000892B90918202892B90918302892B11F099
:102FD0000E946B1786E0FE013196AEE7B2E00190E9
:102FE0000D928A95E1F726960FB6F894DEBF0FBED4
:102FF000CDBFDF91CF911F910F91FF90EF9008957A
:1030000086E0EEE7F2E0DF011D928A95E9F7089588
:103010000895FC01680F791F8FEF91E36E177F070A
:1030200009F408952191822728E030E087FF06C047
:10303000880F892721503109C9F7F0CF880FFACFBF
:10304000CF93DF93EC01FB018281882309F420C137
:10305000C430FDE5DF07C8F5CB3F9CE5D90730F468
:103060009E0122503C452431310598F50E94530EB3
:103070009093B1028093B002C031FCE5DF0709F400
:10308000E0C008F061C0C8309CE5D90709F4CBC0A6
:1030900088F5C430FCE5DF0709F4B3C0E8F4C230BA
:1030A0009CE5D90709F4A7C08091B0028260C330C3
:1030B000DC4509F4A3C08091B0029091B1020E9456
:1030C000610E0E94160780E004C0C236EDE5DE07FF
:1030D00069F2DF91CF9108958091B0028061C6308E
:1030E000FCE5DF0709F48AC008F48FC08091B002C4
:1030F000806284C08091B0028D7FCC309CE5D9077E
:1031000009F47CC070F48091B0028C60CA30FCE598
:10311000DF0709F473C008F48AC08091B0028E7F83
:103120006DC08091B002877FCE309CE5D90709F44D
:1031300065C08091B0028B7FCF30DC4508F45EC063
:103140008091B0028F7E5AC0CD3FFCE5DF0709F4C5
:1031500074C040F5C4319CE5D90709F48AC058F41D
:10316000C231FCE5DF0709F474C008F46EC0809139
:10317000B002837F43C0CB3F9CE5D90709F449C027
:1031800008F04DC0C531DC4509F095CF8091B00203
:1031900082FB992790F921E0922790FB82F990FB1E
:1031A00083F92CC0C1308DE5D80709F458C088F4E4
:1031B0008091B1028360CF3FECE5DE0769F1809139
:1031C000B1028D7FC115DD4538F18091B1028C7F50
:1031D00023C0C3308DE5D80709F458C008F452C0A5
:1031E000C236DD4509F067CF9091B002892F8F7EFE
:1031F00094FF806103C08091B00281608093B0022F
:103200005ACF8091B0028460F9CF8091B00288607B
:10321000F5CF8091B10281608093B1024CCF809153
:10322000B1028260F9CF8091B0028064E7CF0E9442
:1032300016078091B0028068E1CF8091B1028E7F45
:10324000EBCF8091B0028F7DD9CF8091B0028F7B80
:10325000D5CF0E9416078091B0028F77CFCF809193
:10326000B102982F909591708E7F892B90FB81F9F8
:10327000D3CF0E9416079091B002892F97FB87F950
:103280008058BCCF81E00E94E70E15CF80E0FBCFD5
:1032900081E01FCFCF93DF93EB0186319C4511F581
:1032A0000E945F0D9A81992399F08A7A91E009F43E
:1032B00090E090938402811109C089E20E943A0D46
:1032C0000E94AF0D80E0DF91CF91089585E3F6CFA6
:1032D00080918402811104C089E20E94410DF0CFE7
:1032E00085E3FBCF81E0EFCF0895089580919202AE
:1032F000811114C00E94741981E0809392020E948F
:10330000131E909391028093900210928502E6E83A
:10331000F2E08AE0DF011D928A95E9F708951F9394
:10332000CF93DF93EC01FB011281111106C011E074
:10333000812FDF91CF911F91089580919202882370
:1033400051F180919002909191020E942B1E8C323B
:10335000914068F7CE019056811520E2920720F047
:10336000905E8115904108F4DD27809185028530BB
:1033700068F4E82FF0E0EE0FFF1FEA57FD4FD1830E
:10338000C0838F5F8093850210E0D2CF10929202AB
:103390000E947519F9CFC932DD4549F60E947619A8
:1033A000C7CFAF92BF92CF92DF92EF92FF920F936F
:1033B0001F93CF93DF937C015B01C42FD22FFC01BD
:1033C00082818823F9F0409395020E94131E909306
:1033D00094028093930280E28C0F883008F061C0E1
:1033E000C77081E001C0880FCA95EAF7DF91CF91DD
:1033F0001F910F91FF90EF90DF90CF90BF90AF9013
:103400000C947D0410919502141340C08091930296
:10341000909194020E942B1E6C01B701C5010E947D
:10342000F809C816D90690F5C0E2CD0F1D17B9F0FE
:1034300080E2810F883040F4177081E001C0880F6E
:103440001A95EAF70E948404C83048F481E09D2F61
:10345000977001C0880F9A95EAF70E947D04802F2B
:103460000E947504C830E8F4D77081E001C0880F6D
:10347000DA95EAF7DF91CF911F910F91FF90EF90CE
:10348000DF90CF90BF90AF900C94840480E28C0FBB
:10349000883038F4C77081E001C0880FCA95EAF718
:1034A000E9CFDF91CF911F910F91FF90EF90DF90C7
:1034B000CF90BF90AF9008950F939C01CB01243F14
:1034C0004CE5340759F1A8F4293DFCE53F0701F12B
:1034D0002A3D4CE53407D1F1283D3C4591F406E204
:1034E00021EE41EE68ED7CE50E94D11980E00F915C
:1034F0000895263FFCE53F07E9F0B0F0273F3C4543
:10350000F9F0FC018281882339F110929502EFCF06
:1035100007E225EE45EE69ED7CE5E6CF06E221EE19
:1035200040EE64EF7CE5E0CF07E225EE44EE65EF88
:103530007CE5DACF06E221EE42EE66EF7CE5D4CF01
:1035400007E225EE46EE67EF7CE5CECF08E221E00C
:1035500045EE6AED7CE5C8CF81E0C9CF8EE1489B9E
:1035600002C08150E1F7489BFECF0895589880E251
:103570008A95F1F7589A0895FC013BE03A95F1F7E6
:1035800098E020E080E031E040E14A95F1F7880FD3
:10359000489B02C08160232742E04A95F1F7000072
:1035A00040E14A95F1F7915079F790E19A95F1F75A
:1035B00099B132E03A95F1F7000040E14A95F1F710
:1035C000917092272081920F90830895EF92FF923D
:1035D0000F931F93CF93DF930F92CDB7DEB719826E
:1035E0008C017C01E60EF11C0E151F0561F481E0D3
:1035F0009981911180E00F90DF91CF911F910F91F0
:10360000FF90EF9008950E94AE1ACE0101960E949D
:10361000BC1AF80181938F01E7CF509A589A089508
:103620005098589AE89AE9E6F0E080818C7F808390
:1036300008956150770B91E001C0990F6A95EAF700
:1036400020E031E0911108C0222391F0589A80E2E5
:103650008A95F1F758980895492F482339F0589AD8
:10366000232740E24A95F1F79695ECCF5898F9CF89
:103670005898EDCFFF920F931F93CF93DF93EC01F8
:103680008C01060F111DC017D10731F4DF91CF91C6
:103690001F910F91FF900895F9900E94B61A68E06B
:1036A0008F2D0E94191BEFCF1F920F920FB60F9212
:1036B0001124EF92FF920F931F932F933F934F93F9
:1036C0005F936F937F938F939F93AF93BF93EF938A
:1036D000FF93CF93DF930F92CDB7DEB719820E948D
:1036E000AE1ACE0101960E94BC1AA82FA695A695E7
:1036F000A695282F229525709A2F9570290F922F25
:10370000937026952695920F982797708981982B0C
:1037100009F075C0A43008F072C080E18A95F1F715
:10372000589A509AB2E0BA95F1F700C05898EA2E2C
:10373000F12CEAE0AE9FD0011124AB5FBE4F18968A
:10374000ED91FC9119973097B1F06091C40170919F
:10375000C50116962D913C911797260F371F13968A
:103760008D919C911497680F791F15964C91159720
:1037700012968C9109958AE08E9DF0018F9DF00D37
:103780001124EB5FFE4F6581662351F02091C40147
:103790003091C50186819781820F931F0E943A1B49
:1037A0000E94B61AF0E1FA95F1F758985098589A95
:1037B00080E18A95F1F78AE08E9D80018F9D100D42
:1037C00011240B5F1E4FD80112966C91129766233D
:1037D00071F12091C4013091C50113968D919C9196
:1037E000820F931F0E94E61AD801ED91FC91882365
:1037F00011F088E001C082E080830E94AE1A0F9031
:10380000DF91CF91FF91EF91BF91AF919F918F91F8
:103810007F916F915F914F913F912F911F910F91E8
:10382000FF90EF900F900FBE0F901F901895ED91A5
:10383000FC91DFCF0F931F93CF93DF93EC0104979D
:103840000CF0A9C08AE08C9FF0018D9FF00D11242F
:10385000EB5FFE4F80819181892B09F49CC0F89425
:10386000509A589885E08A95F1F700008C2F86953C
:1038700085709C2F9570890F982F937086958695EB
:10388000890F8E0193E0000F111F9A95E1F7082B25
:103890000E94B61A00C068E0802F0E94191BA0E1A8
:1038A000AA95F1F75098589A489B27C087E090E076
:1038B000489925C08AE08C9F80018D9F100D1124AE
:1038C0000B5F1E4FF80165816623A1F12091C401B1
:1038D0003091C50186819781820F931F0E94E61A5D
:1038E000811128C0509A589AD801ED91FC9182E03C
:1038F0008083789482E090E016C000C0D5CF019715
:10390000B9F4509A589A8AE08C9FF0018D9FF00D7F
:103910001124EB5FFE4F0190F081E02D81E0808368
:10392000789481E090E0DF91CF911F910F910895FD
:1039300000C0BECF0E94AE1AB0E2BA95F1F7589817
:10394000509AE0E1EA95F1F78AE08C9FF0018D9FB3
:10395000F00D1124EB5FFE4F6281662351F0209140
:10396000C4013091C50183819481820F931F0E940D
:103970003A1B0E94B61A8AE08C9FF0018D9FF00DD1
:103980001124EB5FFE4F0190F081E02D10827894BE
:1039900090E080E0C8CF84E090E0C5CF9093C7016D
:1039A0008093C601089590939C0280939B02089592
:1039B0000E940414811103C0809196020895E09141
:1039C0009B02F0919C02309721F00190F081E02D54
:1039D000099480E00895E0919B02F0919C02309759
:1039E00021F00280F381E02D09940895E0919B027B
:1039F000F0919C02309739F022E0DC012C93048096
:103A0000F581E02D099408952091990230919A0250
:103A10002817390771F090939A0280939902E091E8
:103A20009B02F0919C02309721F00680F781E02DF7
:103A30000994089520919702309198022817390728
:103A400071F09093980280939702E0919B02F0911D
:103A50009C02309721F00084F185E02D09940895AF
:103A60009C012E5F3F4FAC01485F5F4F80E0241701
:103A7000350709F40895F90191919F019923B9F34C
:103A80008F5FF5CF662349F0FC01329608962191AD
:103A9000261729F0E817F907D1F780E0089581E0AB
:103AA00008959C01FC0132969FEF80E041914617FA
:103AB00051F09F3F19F4411101C0982F8F5F86305C
:103AC000A9F79F3F09F40895290F311D97FD3A95F5
:103AD000F90162830895FC0132960896219126131C
:103AE00003C0DF0111971C92E817F907B9F7089591
:103AF0000C94511D0C946B1D029626E0FC01119252
:103B00002A95E9F7089508950C94831D811105C045
:103B100081E080939D020C94841D82E0FACF83E0C3
:103B200080939D020C94841D0C94861D81E08093EB
:103B30009D020C94841D0C94961D08958091D102D1
:103B4000843031F10E94AF0210929E0288E190E031
:103B500020E40FB6F894A895809360000FBE2093E0
:103B6000600083B7817F846083BF83B7816083BF38
:103B70007894889583B78E7F83BF0FB6F894A89505
:103B800080916000886180936000109260000FBE99
:103B9000089508950895CF930E94C91D0E947A1335
:103BA0000E94CA1DC0E08C2F0E944312811105C0E3
:103BB000CF5FCA30C1F7CF91089581E0FCCF0E945A
:103BC00016070C941D031F921FB61F9211248F938A
:103BD0009F93AF93BF9380919E02811113C08091F8
:103BE000C9029091CA02A091CB02B091CC02419639
:103BF000A11DB11D8093C9029093CA02A093CB026C
:103C0000B093CC02BF91AF919F918F911F901FBE37
:103C10001F90189582E084BD93E095BD9AEF97BD03
:103C200080936E0008952FB7F8948091C902909107
:103C3000CA02A091CB02B091CC022FBF08952FB73A
:103C4000F8946091C9027091CA028091CB02909160
:103C5000CC022FBF08959C014FB7F8948091C90200
:103C60009091CA02A091CB02B091CC024FBF821BAF
:103C7000930B0895CF92DF92EF92FF922FB7F894B3
:103C8000C090C902D090CA02E090CB02F090CC0262
:103C90002FBFA7019601261B370B480B590BCA01F2
:103CA000B901FF90EF90DF90CF90089578941F9224
:103CB0001FB61F9211248F939F93AF93BF93809150
:103CC000C9029091CA02A091CB02B091CC02019698
:103CD000A11DB11D8093C9029093CA02A093CB028B
:103CE000B093CC02BF91AF919F918F911F901FBE57
:103CF0001F90189587E797E7909301088093000835
:103D000088E19AE00FB6F894A895809360000FBE02
:103D100090936000FFCF8091AA02089508959C01BE
:103D200082E08093E9009FEF8091E800915085FD4B
:103D300006C085ED8A95F1F700009111F5CF8091CD
:103D4000E80085FF0CC050E040E066E070E0C9018B
:103D50000E94B5208091E8008E778093E800089556
:103D6000CF93DF93EC0181E08093E9008FEF909196
:103D7000E800815095FD06C095ED9A95F1F7000099
:103D80008111F5CF8091E80085FF14C050E040E03C
:103D900068E070E0CE010E94B5208091E8008E7747
:103DA0008093E80088E0FE01A2EAB2E001900D9263
:103DB0008A95E1F7DF91CF91089580939F027093E8
:103DC000A1026093A0028091D102843001F582E0CB
:103DD0008093E9008FEF9091E800815095FD06C037
:103DE00095ED9A95F1F700008111F5CF8091E800EB
:103DF00085FF0DC050E040E063E070E08FE992E0A5
:103E00000E94B5208091E8008E778093E8000895A5
:103E1000BC0184E00C94DD1EBC0183E00C94DD1E2B
:103E20008091D002811109C00E9445220E94A222E5
:103E30008091E20084608093E20008951092D002A5
:103E400008950C94961D6091CD0281E0611101C02E
:103E500080E00C948F1D9091D10281E0943009F0A4
:103E600080E06091CD020C94941D42E061EC81E011
:103E70000E94C12142E261EC82E00E94C121909146
:103E8000D10281E0943009F080E06091CD020C9481
:103E9000861D8091D302833009F460C030F48130F4
:103EA000C9F1823009F49CC008958A3009F488C0B1
:103EB0008B3009F46EC0893009F04FC08091D20276
:103EC000813209F04AC08091D6029091D7020297C0
:103ED00008F043C08091E800877F8093E8008091DC
:103EE000E80082FF36C09091F3008091F2000297C3
:103EF00031F48091F100813011F0863021F480910D
:103F0000F1008093AA028091E8008B778093E8000B
:103F10000C94F5218091D202813AF9F48091E80065
:103F2000877F8093E8008091D6029091D702892BF9
:103F300061F468E082EA92E070E00E9404218091DE
:103F4000E8008B778093E800089560E090E080E0DF
:103F5000F3CF8091D1028111C2CF08958091D20216
:103F6000813AD9F78091D6029091D702892BA9F78F
:103F70008091E800877F8093E8008091E80080FFCF
:103F8000FCCF809150018093F1008091E8008E7702
:103F9000BDCF8091D202813201F78091D6029091FB
:103FA000D702892BD1F68091E800877F8093E800C3
:103FB0000E94F5218091D402809350010C94160741
:103FC0008091D202813249F68091E800877F809308
:103FD000E8000E94F5218091D5028093AB020895FC
:103FE0008091D202813A09F0B8CF8091E800877FB2
:103FF0008093E8008091E80080FFFCCF8091AB02C5
:10400000C2CF84B7877F84BF0FB6F894A8958091FC
:104010006000886180936000109260000FBE80E8AD
:1040200090E00FB6F89480936100909361000FBE0A
:104030000C949B1D0E9445220E94A222E2EEF0E019
:1040400080818460808378940C942B2584E491E0B3
:104050000C94D31C8091D1028530A9F48091D102B7
:10406000853011F00C94DF1D0E949E1D8091CF02BF
:104070008823A1F30E94CB1D882381F30E949F20F7
:104080000E941607EBCF089508950C944720292F1E
:1040900033272330310519F168F42130310509F453
:1040A00044C02230310509F445C090E080E030E0A2
:1040B00020E025C02132310549F122323105A9F72E
:1040C00080E490E02AEC33E061157105C1F08BE7E4
:1040D00090E02FE433E06130710589F0E6CF992755
:1040E0008130910581F0009729F00297F1F6ECED0F
:1040F000F2E002C0EEEFF2E0849190E09F01FA015D
:10410000318320830895E0EFF2E0F6CF89E090E07C
:1041100024E133E06115710591F389E090E02DE22F
:1041200033E06130710559F3C0CF82E190E02DE3B7
:1041300033E0E5CF8BE390E022E033E0E0CF80E1B5
:1041400089BD82E189BD09B400FEFDCF8091D80010
:104150008F7D8093D8008091E00082608093E000A2
:104160008091E00081FDFCCF0895AF92BF92CF9285
:10417000DF92FF920F931F93CF93DF936C01EB01BC
:104180008A010E941422F82E811123C00115110505
:1041900039F0F80180819181C81BD90BC80ED91E56
:1041A000B12CA12C2097A9F08091E80085FD22C0B8
:1041B0008091E8008E778093E80001151105A1F049
:1041C000F80180819181A80EB91EB182A08285E09C
:1041D000F82E8F2DDF91CF911F910F91FF90DF90DF
:1041E000CF90BF90AF9008950E9414228823D1F2FF
:1041F000F82EEFCFF60181916F018093F1002197A6
:10420000FFEFAF1ABF0ACECFFC018091D802909188
:10421000D90286179707A0F06115710529F49091CE
:10422000E8009E779093E80090E06115710551F4E5
:10423000911108C08091E80082FF34C080E00895A9
:10424000BC01F2CF8091D1028823C1F18530C1F148
:104250008091E80083FD30C08091E80082FDEACFC4
:104260008091E80080FFE1CF8091F3002091F2007F
:10427000382F6115710519F02830310558F091E09B
:104280002830310509F090E02091E8002E77209346
:10429000E800CBCF81918093F100615071092F5FCD
:1042A0003F4FE7CF8091D102882341F0853041F024
:1042B0008091E80083FFBECF81E0089582E00895F9
:1042C00083E00895FC018091D8029091D90286176D
:1042D0009707A0F06115710529F48091E8008E77A9
:1042E0008093E80090E06115710551F4911108C0C8
:1042F0008091E80082FF35C080E00895BC01F2CFD4
:104300008091D1028823C9F18530C9F18091E800FC
:1043100083FD31C08091E80082FDEACF8091E80002
:1043200080FFE1CF8091F3002091F200382F6115DA
:10433000710519F02830310558F091E02830310529
:1043400009F090E08091E8008E778093E800CBCF71
:1043500084918093F1003196615071092F5F3F4F36
:10436000E6CF8091D102882341F0853041F08091E1
:10437000E80083FFBDCF81E0089582E0089583E0E7
:104380000895982F973028F08F708093E90081E08E
:1043900008959093E900242F762F50E0981731F07C
:1043A0007091EC002091ED005091F00021FD02C0D1
:1043B0009F5FE8CF3091EB003E7F3093EB00309170
:1043C000ED003D7F3093ED003091EB003160309394
:1043D000EB007093EC002093ED005093F0002091DF
:1043E000EE0027FDE5CF80E008958091D20287FF9F
:1043F00013C08091E80082FF06C08091E8008B77AF
:104400008093E80004C08091D1028111F2CF089519
:104410008091D1028823D9F38091E80080FFF8CF02
:104420008091E8008E77ECCF2091E4003091E50098
:1044300095E6A9012091EC00822F817020FF06C033
:104440008091E80080FF06C080E008952091E80098
:1044500022FD1AC08091D102882389F0853089F02D
:104460008091EB0085FD0FC02091E4003091E500C4
:1044700042175307F9F29150E1F684E0089582E083
:10448000089583E0089581E008950E94B3220E9478
:10449000BB22E0EEF0E0808181608083E8EDF0E017
:1044A00080818F77808319BCA7EDB0E08C918E7FDF
:1044B0008C9380818F7E80831092D00208950F9319
:1044C0001F93CF93DF930E94B3220E94BB22C8EDBB
:1044D000D0E088818F77888388818068888388810D
:1044E0008F7D888319BC1092D1021092CD02109258
:1044F000CF021092CE0200EE10E0F80180818B7F97
:10450000808388818160888342E060E080E00E944F
:10451000C121E1EEF0E080818E7F8083E2EEF0E069
:10452000808181608083808188608083F8018081C0
:104530008E7F8083888180618883DF91CF911F91F6
:104540000F910895E8EDF0E080818F7E8083E7EDA4
:10455000F0E080818160808384E082BF81E080938D
:10456000D0020C945F22E8EDF0E080818E7F8083A2
:104570001092E20008951092DA001092E10008957E
:104580001F920F920FB60F9211242F933F934F93C8
:104590005F936F937F938F939F93AF93BF93EF93AB
:1045A000FF938091E10082FF0BC08091E20082FFC7
:1045B00007C08091E1008B7F8093E1000E942A2553
:1045C0008091DA0080FF19C08091D80080FF15C06B
:1045D0008091DA008E7F8093DA008091D90080FF8D
:1045E00096C080E189BD82E189BD09B400FEFDCF9E
:1045F00081E08093D1020E94101F8091E10080FF32
:1046000019C08091E20080FF15C08091E2008E7F8A
:104610008093E2008091E20080618093E2008091CB
:10462000D80080628093D80019BC85E08093D102C5
:104630000E94231F8091E10084FF2BC08091E20043
:1046400084FF27C080E189BD82E189BD89B5982FAB
:10465000917080FFFBCF8091D8008F7D8093D80030
:104660008091E1008F7E8093E1008091E2008F7E57
:104670008093E2008091E20081608093E20080916B
:10468000CD02882309F449C084E08093D1020E94BE
:104690002B1F8091E10083FF29C08091E20083FFFE
:1046A00025C08091E100877F8093E10082E08093C4
:1046B000D1021092CD028091E1008E7F8093E100C3
:1046C0008091E2008E7F8093E2008091E200806121
:1046D0008093E20042E060E080E00E94C12180918E
:1046E000F00088608093F0000E94211FFF91EF91FD
:1046F000BF91AF919F918F917F916F915F914F91FA
:104700003F912F910F900FBE0F901F90189519BCDD
:104710001092D1020E941E1F70CF8091E30087FD8E
:1047200093E09093D102B3CF1F920F920FB60F92E6
:1047300011242F933F934F935F936F937F938F93A6
:104740009F93AF93BF93CF93DF93EF93FF93D0915A
:10475000E900DF708091EC00C82FC17080FDC0E8D7
:104760001092E9008091F000877F8093F0007894A8
:104770000E94D8231092E9008091F0008860809315
:10478000F000CD2BCF70C093E900FF91EF91DF9146
:10479000CF91BF91AF919F918F917F916F915F91D9
:1047A0004F913F912F910F900FBE0F901F90189532
:1047B0001F93CF93DF93CDB7DEB7AA970FB6F894C8
:1047C000DEBF0FBECDBF82ED92E02091F100FC0173
:1047D0002193CF01F2E08A3D9F07B9F70E94491F5C
:1047E0008091E80083FF1EC18091D2029091D30294
:1047F0009A3008F017C1E92FF0E0EA52FA4D0C9414
:104800005825803899F0823809F00CC18091D60281
:104810008F70873008F006C18093E9008091EB002B
:1048200085FB882780F91092E90006C08091CE02AE
:104830009091CF02911182609091E800977F9093C0
:10484000E8008093F1001092F1008091E8008E77EB
:10485000E5C0882309F4D3C0823009F0E3C0809119
:10486000D4028111D6C08091D6028F702FEF280F0D
:10487000263008F0D7C08093E9002091EB0020FF9C
:10488000C8C0933031F48091EB0080628093EB00DC
:10489000C0C09091EB0090619093EB0021E030E07C
:1048A00001C0220F8A95EAF72093EA001092EA00ED
:1048B0008091EB008860EACF8111B4C01091D402DE
:1048C0001F778091E3008078812B8093E3008091B3
:1048D000E800877F8093E8000E94F5218091E8003E
:1048E00080FFFCCF8091E30080688093E30082E04A
:1048F000111183E08093D10295C08058823008F076
:1049000091C08091D4029091D5028C3D23E0920712
:10491000A1F583E08A838AE289834FB7F894DE01A8
:10492000139620E03EE051E2E32FF0E05093570071
:10493000E49120FF03C0E295EF703F5FEF708E2F90
:1049400090E0EA30C0F0C7968D939D932F5F24319D
:1049500059F74FBF8091E800877F8093E8006AE2B3
:1049600070E0CE0101960E9404218091E8008B77CF
:104970008093E80057C0C096E7CF6091D60270914F
:10498000D702AE014F5F5F4F0E944520BC01892BCB
:1049900009F448C09091E800977F9093E8008981DE
:1049A0009A810E946221E1CF8038E1F58091E80090
:1049B000877F8093E8008091CD028093F10045CFFE
:1049C000811130C09091D402923060F58091E8005E
:1049D000877F8093E8009093CD020E94F52180911B
:1049E000CD02882311F084E005C08091E30087FDAB
:1049F000FACF81E08093D1020E94351F13C08091CD
:104A0000D402813079F481E0933009F080E0809322
:104A1000CF021092E9008091E800877F8093E80040
:104A20000E94F5218091E80083FF0AC08091E80090
:104A3000877F8093E8008091EB0080628093EB0099
:104A4000AA960FB6F894DEBF0FBECDBFDF91CF910F
:104A50001F9108950895CF938091D1028823A1F0EA
:104A6000C091E900CF709091EC00892F817090FD8A
:104A700080E8C82B1092E9008091E80083FD0E9435
:104A8000D823CF70C093E900CF9108950E944522AA
:104A90001092D1020895E8EDF0E08081806180837A
:104AA0008AE18A95F1F700C08091D900817008955C
:104AB000EE0FFF1F0590F491E02D0994FB01DC013E
:104AC00004C08D910190801921F441505040C8F7E5
:104AD000881B990B0895FB01DC0102C001900D9227
:104AE00041505040D8F70895F999FECF92BD81BD4D
:104AF000F89A992780B50895A8E1B0E042E050E027
:104B00000C94A825262FF999FECF92BD81BDF89A65
:104B1000019700B4021639F01FBA20BD0FB6F89401
:104B2000FA9AF99A0FBE08950396272F0E948325BB
:104B30000E948225252F0E948325242F0C948325F3
:104B40000196272F0E9483250C948225DC01CB013E
:104B5000FC01F999FECF06C0F2BDE1BDF89A31968D
:104B600000B40D9241505040B8F70895F894FFCF2B
:104B7000C504C504F604F6048905A5052505250523
:104B8000B0053C064B064B06A30625052505AC06DD
:104B9000250725072E072E0730072E072E072E077D
:104BA0002507250735072E072E0735070124292459
:104BB0001225292412255C247D241225D424E024E6
:104BC0007800380201C8020000000100000000C89F
:104BD000020000000501000000C8020406000000F9
:104BE0000000002800780064003C00010001000182
:104BF00000010010001C001000100010000400084C
:104C0000001400028B1EB01E8F1E0C1F081F8E1E6C
:104C100001E200E900EA00B500B600B700CD00836C
:104C200001CC008A01920194012102230224022571
:104C300002260227022A02B300B4006F007000812E
:104C40008283E200E900EA00B500B600B700CD00BB
:104C50008301CC008A0192019401210223022402E3
:104C60002502260227022A02B300B4006F0070005A
:104C7000818283F4F5F6F73133329497C6343500E8
:064C8000000000005F02CD
:00000001FF
